:0600000002004B02118911
:03000B0002176772
:030013000211DCFB
:01001B0032B2
:0300230002113D8A
:01002B0032A2
:01003300329A
:03003B0002122F7F
:030043000210FEAA
:0300460002128320
:02004900E4735E
:0D004B0075816C12128EE582600302004682
:1000580079DDE94400601B7A01901D18783775A096
:1000680001E493F2A308B8000205A0D9F4DAF27506
:02007800A0FFE7
:06007A00E478FFF6D8FD5A
:100080007800E84400600A799475A000E4F309D888
:10009000FC78A3E84400600C7901900094E4F0A39C
:0400A000D8FCD9FAB5
:1000A400752283752312752400752500E4F543F544
:0500B40044F545F5468E
:0900B90075191A751A00751B0077
:0E00C2007808E4F608F608F608F6780C7600E2
:0200D000C2006C
:0300D200020046E3
:1000D50012060B9000DA7401F075820F12129290DD
:1000E50000DA7401F075820E1212929000DA740132
:1000F500F07582201212929000DA7401F075821068
:100105001212929000DA7401F07582111212929017
:1001150000DA7401F075821F1212929000DA7401F0
:10012500F075821E1212929000DA7401F075820B3E
:100135001212929000DA7401F075820A12129290EE
:1001450000DA7401F07582211212929000DA7401BE
:10015500F07582221212929000DBE4F07582221271
:1001650013A91217E7AC82AD83AEF0FF8C3F8D402B
:100175008E418F428C3B8D3C8E3D8F3E9000E074CE
:1001850060F0741CA3F07480A3F090071012147B28
:100195001206F1900064E4F5F01218240206F1123B
:1001A50017E785823785833885F039F53A12085780
:1001B500E582603112085E858236AC37AD38AE39DE
:1001C500AF3A8C3F8D408E418F428C3B8D3C8E3DAE
:1001D5008F3EE4B5240280077401B5240B80030229
:1001E50001EE02047C0204E22274FD25475003025D
:1001F5000342E547901C5493B5360B7402B547038B
:10020500752500054722E547901C5D93B5360B74AF
:1002150002B54703752501054722E547901C57930D
:10022500FFB5360280030203137402B5470280034B
:100235000203109000E07465F0741CA3F07480A3B1
:10024500F090071012147B903FFCE493FF7E007D35
:10025500007C009000EBEFF0EEA3F0EDA3F0ECA333
:10026500F09000EF7410F090071012156E903FFD9E
:10027500E493FF7E007D007C009000EBEFF0EEA3A1
:10028500F0EDA3F0ECA3F09000EF7410F0900710E0
:1002950012156E903FFEE493FF7E007D007C00907A
:1002A50000EBEFF0EEA3F0EDA3F0ECA3F09000EF80
:1002B5007410F090071012156E903FFFE493FF7EC7
:1002C500007D007C009000EBEFF0EEA3F0EDA3F0D5
:1002D500ECA3F09000EF7410F090071012156E90DB
:1002E5003FFAE493FF7E007D007C009000EBEFF089
:1002F500EEA3F0EDA3F0ECA3F09000EF7410F090F6
:10030500071012156E900710121537054722E5479D
:10031500901C5A93B536227402B5471A9000E074C2
:1003250069F0741CA3F07480A3F090071012147B7D
:10033500900710121537054722754700227403B53B
:100345004702800F7404B54702800E7405B5470255
:10035500800D228536480547228536490547228581
:10036500364AE4B5250280097401B525030203F96F
:1003750022E5496548FF7E00630755AC4A7D00ECE0
:10038500B5076DEDB506699000DB7401F075822245
:100395001213A9AC487D007E008E078D068C057C66
:1003A50000A849E4F9FAFBE82CFCE93DFDEA3EFE2C
:1003B500EB3FFF74012CF569E43DF56AE43EF56B0E
:1003C500E43FF56C900003E4F5F012193C858232A8
:1003D50085833385F034F535E4F530F531F5697508
:1003E5006A30F56B90009475F0001217487524017A
:1003F50075470022E5496548FF7E00630755AC4A0D
:100405007D00ECB5076DEDB506699000DB7401F074
:100415007582221213A9AC487D007E008E078D06D9
:100425008C057C00A849E4F9FAFBE82CFCE93DFDC4
:10043500EA3EFEEB3FFF74012CF569E43DF56AE405
:100445003EF56BE43FF56C900003E4F5F012193CC2
:1004550085823285833385F034F535E4F530F53121
:10046500F569756A30F56B90009475F000121748C0
:1004750075240175470022AE30AF31C3EE9430EFDD
:1004850094005017E5302494F582E5313400F58366
:10049500E536F00530E4B530020531153274FFB5A7
:1004A500320C1533B533071534B534021535E5323D
:1004B5004533453445357024F5247E947F00FD7C15
:1004C500004305308E828F838DF0EC121A9212064E
:1004D500F19000DBE4F07582220213A922E537C30F
:1004E500953FFCE5389540FDE5399541FEE53A95A2
:1004F50042FFC3EC94E8ED9403EE9400EF940050B2
:100505000122E4B52502800A7401B52502804A025C
:10051500059D9000E07460F0741CA3F07480A3F056
:1005250090071012147B9007101215371206F1E58B
:100535004545467013754501F5469000DB7401F09D
:100545007582221213A98050E4F545F5469000DB2B
:10055500F07582221213A9803F9000E07473F07445
:100565001CA3F07480A3F090071012147B1206F1FF
:10057500E54545467013754501F5469000DB740168
:10058500F07582221213A9800FE4F545F546900017
:10059500DBF07582221213A985373F8538408539EE
:1005A50041853A42E5434544605BE537C3953BFCED
:1005B500E538953CFDE539953DFEE53A953EFF85E7
:1005C500436985446A756B00756C009003E8E4F532
:1005D500F0C007C006C005C00412193CA882A98353
:1005E500AAF0FBD004D005D006D007C3EC98ED994E
:1005F500EE9AEF9B400F75240085373B85383C8587
:06060500393D853A3E225A
:10060B001210AC1210D61210C575DD0075D3007523
:10061B00D5002290013EE4F0900140F0227F00745F
:10062B00F925DB50067D077E008004ADDB7E008F55
:10063B00037C00C3EB9DEC64808EF063F08095F03F
:10064B005017EF2437FDE43401FE8F82758300E0F1
:10065B00FC8D828E83F00F80C6227F008F057E007B
:10066B00C3ED9407EE940050188F057E00EF2437EE
:10067B00F582E43401F583E0FC8D828E83F00F80EC
:10068B00DB90000722900002E0FF900141F0E02098
:10069B00E046900137E0FCA3E0FDA3E0FEA3E0FF02
:1006AB00BCB035BD0432BE002FBF002C75E200C2BA
:1006BB00AF75100075113890C3501218D590C350F8
:1006CB001218D5AE10AF11C007C0068E828F8312E1
:1006DB000049D006D00780FE227F00900141E060E8
:1006EB00027F018F8222900140E07018900142E05E
:1006FB00FFE060108FD553D4FC9001407401F09053
:10070B000142E4F022AF82900141E060617D007E06
:10071B0000900140E060240DBD00010E900005C06B
:10072B0007C006C0051218D5D005D006D007C3EDFB
:10073B009450EE94C340DA75820022900142E0FEA1
:10074B00BE400050207D0074402EFEE43DFDEE24A3
:10075B0014F582ED3400F583EFF0900142E02401B3
:10076B00F075820122C0071206F1D007809F7582B7
:10077B000022AFF0AE83E5829000C6F0EEA3F0EF5F
:10078B00A3F0900141E070030208539000C4E0FE17
:10079B00A3E0FFC3E49E74808FF063F08095F0407C
:1007AB00030208537E007F00900140E060200EBEE4
:1007BB0000010F900005C007C0061218D5D006D057
:1007CB0007C3EE9450EF94C340DE75820022900075
:1007DB00C6E0FDA3E0FEA3E0FF9000C4E0FBA3E0B6
:1007EB00FCC3E49B74808CF063F08095F0509C907C
:1007FB000142E0FABA400050498A017A007440295C
:10080B00F9E43AFAE92414F9EA3400FA8D828E837A
:10081B008FF0121B3BF8A3AD82AE839000C6EDF0B8
:10082B00EEA3F0EFA3F089828A83E8F0900142E017
:10083B002401F01BBBFF011C9000C4EBF0ECA3F0F8
:10084B00809F1206F10207967582002290013EE00E
:10085B00F5822290013EE07003F5822290013FE089
:10086B002414F582E43400F583E0FF90013FE004AB
:10087B00F090013EE014F0E0700353D4F38F82222A
:10088B0090013EE07003F5822290013FE02414F5C5
:10089B0082E43400F583E0FF90013FE004F0900127
:1008AB003EE014F0E0700353D4F38F822275D50031
:1008BB0074FC55D44402F5D4900140E4F02230DEB0
:1008CB001990013EE5DBF090013FE4F090013EE032
:0B08DB00600874F355D44408F5D422E3
:1008E600AFDBBF08028003020F08900007E0FE7F1F
:1008F60000900006E0FD7C004FF512EC4EF5138FDC
:100906001C900001E0F5148F1B900000E0FE54607F
:100916006052900000E0FE5306607D00BE2005BDDB
:100926000002800CBE4037BD0034751CFF020F0B61
:100936007420B51403020F0B7421B51402800774DA
:1009460022B51414800C120665AD82AE838D1C028E
:100956000F0B120690020F0B751CFF020F0B751C76
:10096600FF020F0BE51424F45003020F03E51424D1
:100976000B83F582E514241083F583E473E30A03FD
:10098600CD03D89B03E5010B0B0E0D0F0D0F0C09C4
:100996000F0C0D0F0F900003E0FEBE0102800DBE8E
:1009A6000202801EBE0302802F020C5E751643757E
:1009B6001701751800900155E0FDA3E0FE8D1C029D
:1009C6000C617516577517017518009001A2E0FDA8
:1009D600A3E0FE8D1C020C61900002E070157516F6
:1009E600A4751701F5189001A8E0FDA3E0FE8D1C83
:1009F600020C61900002E0FEBE01167516E0751746
:100A0600017518009001EEE0FDA3E0FE8D1C020CBE
:100A160061900002E0FEBE02167516AA75170175F2
:100A260018009001C6E0FDA3E0FE8D1C020C61904B
:100A36000002E0FEBE03028003020C339000C9747C
:100A460030F09000CA04F09000CB04F09000CC0483
:100A5600F09000CD04F09000CE04F09000CF04F0AA
:100A66009000D004F09000D104F09000D204F090F1
:100A760000D37441F09000D404F09000D504F090B7
:100A860000D604F09000D704F09000D804F090004F
:100A9600D9E4F09001F0741AF09001F17403F0902B
:100AA6003FFCE493C4540FFE53060F7D00EE24C9A9
:100AB600F582ED3400F583E09001F2F09001F3E465
:100AC600F0903FFC93FE53060F7D00EE24C9F5829D
:100AD600ED3400F583E09001F4F09001F5E4F09038
:100AE6003FFD93C4540FFE53060F7D00EE24C9F557
:100AF60082ED3400F583E09001F6F09001F7E4F022
:100B0600903FFD93FE53060F7D00EE24C9F582ED5E
:100B16003400F583E09001F8F09001F9E4F0903F9D
:100B2600FE93C4540FFE53060F7D00EE24C9F582D2
:100B3600ED3400F583E09001FAF09001FBE4F090CB
:100B46003FFE93FE53060F7D00EE24C9F582ED3479
:100B560000F583E09001FCF09001FDE4F0903FFF8A
:100B660093C4540FFE53060F7D00EE24C9F582EDA3
:100B76003400F583E09001FEF09001FFE4F0903F31
:100B8600FF93FE53060F7D00EE24C9F582ED340077
:100B9600F583E0900200F0900201E4F0903FFA93B2
:100BA600C4540FFE53060F7D00EE24C9F582ED34C2
:100BB60000F583E0900202F0900203E4F0903FFA21
:100BC60093FE53060F7D00EE24C9F582ED3400F541
:100BD60083E0900204F0900205E4F0903FFB93C49A
:100BE600540FFE53060F7D00EE24C9F582ED340046
:100BF600F583E0900206F0900207E4F0903FFB9345
:100C0600FE53060F7D00EE24C9F582ED3400F58310
:100C1600E0FE900208F0900209E4F075191AF51A40
:100C26007516F0751701F518751C1A802E900002BE
:100C3600E0FEBE04157516C87517017518009001FB
:100C4600DEE0FDA3E0FE8D1C80117516F075170120
:100C560075180085191C8003751CFF74FFB51C03ED
:100C6600020F0BAD1C7E00C3ED9512EE95135004DA
:100C76008D128E13AD12AE13C3ED9408EE940040A0
:100C8600067B087C008004AB12AC138B1C7C00C373
:100C9600EC951C50208C027B00EC2516F8E43517E9
:100CA600F9AF18888289838FF0121B3BF88A828BF2
:100CB60083F00C80DAAC1C7F00EDC39CFDEE9FFE3A
:100CC6008D128E13E51C2516F516E43517F5170259
:100CD6000F0B900002E0FF8F12751300020F0B90AE
:100CE6000000E515F0AE12AF13C3EE9401EF9400C9
:100CF6005003020F0B751C01020F0B900002E0F56A
:100D060015020F0B900000E0541F7030900003E0B6
:100D1600FE7F00900002E0FD7C004207EC4206BF29
:100D26000114BE001190015EE0FF30E503020F0BD7
:100D3600751CFF020F0B751CFF020F0B900000E0E5
:100D4600FF53071F7E00BF0278BE0075900004E0C7
:100D5600FFBF0102805FBF02028049BF03028033EA
:100D6600BF0402801DBF81028040BF8202802ABF6D
:100D760083028014BF844474BC55DE4402F5DE024F
:100D86000F0B53DE73020F0B74BC55D64402F5D617
:100D9600020F0B53D673020F0B74BC55D44402F5E5
:100DA600D4020F0B53D473020F0B74BC55D24402FA
:100DB600F5D2020F0B53D273020F0B751CFF020FF5
:100DC6000B751CFF020F0B900000E0541F70309053
:100DD6000003E0FE7F00900002E0FD7C004207EC8D
:100DE6004206BF0114BE001190015EE0FF30E5032C
:100DF600020F0B751CFF020F0B751CFF020F0B90E9
:100E06000000E0FF53071F7E00BF0205BE00028000
:100E160003020EDE900003E0FE7F00900002E0FD7C
:100E26007C004207EC4206EF4E6003020ED99000AA
:100E360005E0FE7F00900004E0FD7C004207EC42E6
:100E460006BF0106BE0003020ECCBF0205BE0002AD
:100E56008060BF0305BE00028044BF0405BE0002D9
:100E66008028BF8105BE00028052BF8205BE0002F7
:100E76008036BF8305BE0002801ABF8451BE004E75
:100E860074BF55DE4403F5DE807B747F55DE440C6B
:100E9600F5DE807174BF55D64403F5D68067747F3E
:100EA60055D6440CF5D6805D74BF55D44403F5D4AD
:100EB6008053747F55D4440CF5D4804974BF55D201
:100EC6004403F5D2803F747F55D2440CF5D2751C8D
:100ED600FF8032751CFF802D751CFF802890000056
:100EE600E4F0900001F0AE12AF13C3EE9402EF945B
:100EF600004005751C02800D85121C8008751CFFBC
:100F06008003751CFF74FFB51C077514FF75DCCFD5
:100F160022E51C24F74007851CDD75DCC02275DD43
:100F26000075DCC0227405B5140280707406B51411
:100F3600028003020FB0AE12AF13C3EE9408EF9413
:100F46000040067C087D008004AC12AD138C697DE0
:100F560000C3ED956950208D027B00ED2516F8E45F
:100F66003517F9AC18888289838CF0121B3BF88AF6
:100F7600828B83F00D80DAAC697D00EEC39CFEEFB8
:100F86009DFF8E128F13E5692516F516E43517F5C4
:100F9600178569DDAEDC6306408EDC22E5E354800E
:100FA600FFE5124FF5E375DC022275DD0075DC0204
:100FB600227420B5140D30DE1012062875DD00856A
:100FC600DCDC2275DD0043DC022275D30074FC559F
:100FD600D24402F5D22220D903021087E5D9540F54
:100FE600FFADD95305307E00BD0005BE0002801C52
:100FF600BD1005BE00028036BD2005BE000280433E
:10100600BD3006BE000302106D021085EF24FB50B2
:1010160003021085EF2F90102073800880618009ED
:10102600805D805B120FB780561208C98051EF248D
:10103600FB404CEF2F90103F7380448042804080ED
:101046003E803CEF24FB4037EF2F9010547380080E
:10105600800B800E80298027120F2B8022120FD042
:10106600801D1208B88018EF24FB4013EF2F901054
:101076007873800880098007800580031208E6C21D
:10108600D930D81575DC0275D21275D41275E30005
:10109600C2DAC2D9C2D812061E10DA0122E5DA2057
:1010A600E20375D8FF2275E20053E27F43E2297519
:1010B600E30053E2BF53D1FB75D18043D1012243F4
:1010C600E10443E10243E10143D81FD2EAD2AF2251
:1010D6007E0A7F008EEE8FEF7E147F008EE48FE512
:1010E60075EB0C75D21275D4127E007F008EEC8FD4
:0810F600ED75EA4075DC0222F1
:1010FE00C021C0E0C0F0C082C083C007C006C005DA
:10110E00C004C003C002C001C000C0D075D0001220
:10111E000FDCD0D0D000D001D002D003D004D00547
:10112E00D006D007D083D082D0F0D0E0D02132C00C
:10113E0021C0E0C0F0C082C083C007C006C005C099
:10114E0004C003C002C001C000C0D075D0003098EA
:10115E0005121B57C298309905121B8DC299D0D01B
:10116E00D000D001D002D003D004D005D006D007D5
:10117E00D083D082D0F0D0E0D02132C021C0E0C0E8
:10118E00F0C082C083C007C006C005C004C003C043
:10119E0002C001C000C0D075D00090020CE0FEA3CA
:1011AE00E0FFC007C0068E828F83120049D006D0A2
:1011BE0007D0D0D000D001D002D003D004D005D0BB
:1011CE0006D007D083D082D0F0D0E0D02132C0211B
:1011DE00C0E0C0F0C082C083C007C006C005C00416
:1011EE00C003C002C001C000C0D075D00090020E76
:1011FE00E0FEA3E0FFC007C0068E828F8312004977
:10120E00D006D007D0D0D000D001D002D003D00469
:10121E00D005D006D007D083D082D0F0D0E0D02138
:10122E0032C021C0E0C0F0C082C083C007C006C07B
:10123E0005C004C003C002C001C000C0D075D000FC
:10124E0090020AE0FEA3E04E600E90020AE0F8A3C0
:10125E00E0F5838882120049D0D0D000D001D002B0
:10126E00D003D004D005D006D007D083D082D0F0E2
:10127E00D0E0D021321218ED1200D51201A480FB5D
:04128E007582002243
:10129200E582FF901CC893FEEF901CA093FF7001A3
:1012A200229000DAE0FD701BBF0209EEF4FC5292BC
:1012B200EC529322BF0402800122EEF4FC5296EC1F
:1012C200529722BD0214BF0207EE4292EE429322CF
:1012D200BF0439EE4296EE429722BD0116BF0208C4
:1012E200EEF45292EE429322BF0421EEF45296EEB5
:1012F200429722BD0316BF0208EE4292EEF45293C9
:1013020022BF0408EE4296EEF4FE529722AF82BF4D
:101312000102800FBF02028013BF03028017BF04C5
:10132200358023E5C620E22E539DFB22E5C620E34D
:1013320025539DF722AEC65306047F00BE0117BF98
:101342000014539DFB22AEC65306087F00BE010661
:10135200BF0003539DF722E582FF901C7893FEEFB6
:10136200901CC893FDEF901CA093FF7003F582229E
:10137200EE600D8E82C007C00512130FD005D00794
:101382007E00BF0202800ABF03028009BF040C80F4
:1013920008AE908006AEA08002AEB0ED5E6004752D
:1013A20082012275820022E582FF901C7893FEEF73
:1013B200901CC893FDEF901CA093FFEE600D8E82EF
:1013C200C007C00512130FD005D007A2AFE433FE49
:1013D200C2AFBF0202800ABF03028017BF04368079
:1013E200249000DBE07007EDF4FF52908027ED427D
:1013F2009080229000DBE07007EDF4FF52A0801590
:10140200ED42A080109000DBE07007EDF4FF52B0D7
:0B1412008003ED42B0EE6002D2AF227A
:10141D00AE82AF839000DCE0FBA3E0FCA3E0FD7A9D
:10142D00009000DFE0F9890019E8603F8B828C8322
:10143D008DF0121B3BF8A3AB82AC83C007C006C076
:10144D0005C004C003C002C00112145B8007C006B2
:10145D00C007888222A882D001D002D003D004D048
:10146D0005D006D007E860030A80BB8A8222AE82CF
:10147D00AF839000E0E0FBA3E0FCA3E0FD9000E073
:10148D00E0F5F0A3E045F07003F582227A008B823F
:10149D008C838DF0121B3BF9A3AB82AC83E9F86012
:1014AD002CC007C006C005C004C003C0021214BF83
:1014BD008007C006C007888222A982D002D003D03F
:1014CD0004D005D006D007E960030A80C18A8222C4
:1014DD00AE82AF839000E3E0FAA3E0FBA3E0FCA3B0
:1014ED00E0FD9000EBEAF0EBA3F0ECA3F0EDA3F040
:1014FD009000EF740AF08E828F8302156EAE82AF6C
:10150D00839000E7E0FAA3E0FBA3E0FCA3E0FD90ED
:10151D000111EAF0EBA3F0ECA3F0EDA3F0900115AF
:10152D00740AF08E828F83021653AE82AF83C0078A
:10153D00C0061215448008C006C00775820D22AD85
:10154D0082D006D007C007C00512155B8008C00603
:10155D00C00775820A22AE82D005D007EE2DF58226
:10156D002285824B85834C900110E4F09000EFE0D2
:10157D00FDBD020050069000EF740AF09000EFE000
:10158D00F54D7B107C019000EBE0F54EA3E0F54F9F
:10159D00A3E0F550A3E0F551854D527553007554F8
:1015AD000075550085526985536A85546B85556C58
:1015BD00854E82854F838550F0E551C004C00312DE
:1015CD0019AAA88285526985536A85546B85556C15
:1015DD00854E82854F838550F0E551C000121A2D3E
:1015ED00AA82AD83AEF0FFD000D003D0049000EB03
:1015FD00EAF0EDA3F0EEA3F0EFA3F01BBBFF011C8F
:10160D008B068C07B80A005008880574302DFD80B4
:10161D0004743728FD8E828F83EDF09000EBE0F59A
:10162D00F0A3E042F0A3E042F0A3E045F060030236
:10163D0015939000E0EBF0ECA3F0E4A3F0854B8262
:10164D00854C8302147B858256858357900115E066
:10165D00FD7019900111E0F9A3E0FAA3E0FBA3E0FE
:10166D00FC021671C056C05789822222BD0A028023
:10167D000302171E900111E0F9A3E0FAA3E0FBA30A
:10168D00E0FC30E76FC004C003C002C00112169F1A
:10169D008008C056C05775822D22A882D001D00275
:1016AD00D003D0048858900111C3E499F0E49AA3B3
:1016BD00F0E49BA3F0E49CA3F0900111E0F559A395
:1016CD00E0F55AA3E0F55BA3E0F55C9000EBE5597E
:1016DD00F0E55AA3F0E55BA3F0E55CA3F09000EF15
:1016ED00740AF085568285578312156EAF82E558C0
:1016FD002FF582229000EBE9F0EAA3F0EBA3F0ECDA
:10170D00A3F09000EF740AF0855682855783021579
:10171D006E900111E0FBA3E0FCA3E0FEA3E0FF90BF
:10172D0000EBEBF0ECA3F0EEA3F0EFA3F09000EFE5
:10173D00EDF085568285578302156EAC82AD83AE72
:10174D006AAF6BBE0004EF600C1F0FE56912192123
:0A175D00A3DEFADFF88C828D8322F0
:10176700C0D075D00808B8000D09B900090ABA0039
:10177700050BBB00010CD0D032A2AFC2AFA808A99D
:1017870009AA0AAB0BAC8A8588F092AF30F51274C0
:10179700012C600D08B8000909B900050ABA000153
:1017A7000BC3EC9406FCECC313FC75F07DE8A4F8BE
:1017B700ADF075F07DE9A42DF9E435F0FD75F07D08
:1017C700EAA42DFAE435F0FD75F07DEBA42DFB7D41
:1017D70000EC28F582E93DF583EA3DF5F0EB3D2283
:1017E700A2AFC2AFA808A909AA0AAB0BAC0C92AF6B
:1017F70075F020E8A4A8F075F020E9A428F582A8E0
:10180700F075F020EAA428F583A8F075F020EBA482
:1018170028F9A8F075F020ECA42889F02285825DCC
:1018270085835E85F05FF560121780858261858309
:101837006285F063F564E55D455E455F456070016F
:1018470022A85DA95EAA5FAB608561658562668532
:101857006367856468E8494A4B60DBC003C002C020
:1018670001C000121780AC82AD83AEF0FFD000D06C
:1018770001D002D003ECC39565FCED9566FDEE95AE
:1018870067FEEF9568FFC3EC94E8ED9403EE9400D0
:10189700EF940040A118B8FF0919B9FF051ABAFF5C
:1018A700011B885D895E8A5F8B6074E82565F56535
:1018B70074033566F566E43567F567E43568F568FA
:1018C7008565618566628567638568648087AE82A2
:1018D700AF83EE4F600F05A105A105A105A11EBEAF
:1018E700FF011F80ED2275A15575A1AA74F855B99E
:1018F7004406F5B975A1009013881218D5759E5D39
:10190700759D0074F055894402F58953C9EF758CAC
:1019170006C28DD2A9D28CD2AF2220F71130F6138E
:101927008883A88220F509F6A8837583002280FEA4
:10193700F280F5F022AAF0FBE5828569F0A4FCAD00
:10194700F0E5838569F0A42DFDE435F0FEE5828599
:101957006AF0A42DFDE5F03EFEE433FFEA8569F069
:10196700A42EFEE5F03FFFE583856AF0A42EFEE591
:10197700F03FFFE582856BF0A42EFEE5F03FFFEB1D
:101987008569F0A42FFFEA856AF0A42FFFE5838518
:101997006BF0A42FFFE582856CF0A42F8EF08D836A
:0319A7008C82220D
:1019AA00F9E569456A456B456C60777800C308E5D7
:1019BA006C20E73BE56925E0F569E56A33F56AE5F8
:1019CA006B33F56BE56C33F56CE5829569E58395C8
:1019DA006AE5F0956BE9956C50D4C3E56C13F56C28
:1019EA00E56B13F56BE56A13F56AE56913F569E5C5
:1019FA00829569FCE583956AFDE5F0956BFEE995AC
:101A0A006C4007F98EF08D838C82C3E56C13F56CFC
:101A1A00E56B13F56BE56A13F56AE56913F569D8A1
:101A2A00CEE922FB7A20E4FCFDFEFFE5822582F561
:101A3A0082E58333F583E5F033F5F0EB33FB4017AA
:101A4A00DAE98042E5822582F582E58333F583E58A
:101A5A00F033F5F0EB33FBEC33FCED33FDEE33FE04
:101A6A00EF33FFEC9569ED956AEE956BEF956C4057
:101A7A0013EC9569FCED956AFDEE956BFEEF956C9E
:101A8A00FF438201DABEEB22ABF0A2AFE433FEC21F
:011A9A00AF9C
:101A9C00E0A3D2953300500A0000000000000000C3
:101AAC000000C295400A0000000000000000000089
:101ABC00530207DADDDBD900C295EE6002D2AF2209
:101ACC0022AF82BF02005036EF75F002A4240CF551
:101ADC0082740235F0F583E569F0E56AA3F0BF0086
:101AEC00028005BF0118800B900116E024FF92883C
:101AFC00D2A822900116E0FF24FF928AD2AA22AF2C
:101B0C0082BF02005028BF00028005BF010880047C
:101B1C00C2A88002C2AAEF75F002A4240CFE7402C3
:0F1B2C0035F0FF8E828F8374CCF0741AA3F022F1
:101B3B0020F71430F6148883A88220F507E6A883D3
:0C1B4B0075830022E280F7E49322E02280
:101B5700900210E0FF7E008F828E83A37569108E3E
:101B67006A121C1EAE82900211E0FFEEB507012239
:101B7700900210E02417F582E43401F583E599F02B
:101B8700900210EEF022300040900212E0FF900227
:101B970013E0FEEFB50605A200C20022900213E093
:101BA7002427F582E43401F583E0F599900213E0E8
:101BB700FF7E008F828E83A37569108E6A121C1EAA
:0A1BC700AE82AF83900213EEF0220D
:101BD100E569456A60467A01E56925E0F569E56AE6
:101BE100334012F56AE5829569E583956A40030AF7
:101BF10080E6C3E56A13F56AE56913F569C3E58211
:101C01009569F5F0E583956A4005F58385F082C312
:101C1100E56A13F56AE56913F569DAE122C2D5E5EA
:101C21008330E70DD2D5E4C39582F582E49583F53F
:101C310083E56A30E70BE4C39569F569E4956AF5D4
:101C41006A121BD130D50BE4C39582F582E49583EA
:031C5100F58322F6
:101C540061626E64696466767241646141626E0AAF
:101C64000049443A0046573A20312E302E31004183
:041C740064610A009D
:101C7800000000000000000000000000000000015B
:101C88000000000000000000000000000000030445
:101C98000000020000000000010101010101010132
:101CA8000000020202020202020200000303030310
:101CB80003030303000004040404040404040000F0
:101CC80001020408102040800000010204081020CE
:101CD800408000000102040810204080000001023A
:101CE8000408102040800000FFFFFFFFFFFFFFFFF8
:101CF800FFFFFF00FFFF0102FFFFFFFFFFFFFFFFE6
:101D0800FFFFFFFFFFFFFFFF03FFFFFFFFFFFFFFD7
:101D180000E10000000008000000000012011001AE
:101D2800EF020108091250C5010101020301120066
:101D380009024B000201008064080B000202020144
:101D48000409040000010202010405240010010531
:101D5800240100000424020205240600010705816D
:101D68000308004009040100020A000004070502F4
:101D780002400000070582024000004B00040309EE
:101D88000404001C0341006D00620069006E006FCE
:101D9800002000460061006E004800750062001CCB
:101DA80000160343004400430020005300650072FE
:101DB80000690061006C0016000E0341006D0062AE
:091DC8000069006E006F000E00BE
:101DD1000C0330003100320033003400350036008E
:0A1DE10037003800390041004200CD
:021DEB000000F6
:041DED00CC1ACC1A26
:041DF10000000000EE
:00000001FF
