:0600000002004B02146235
:03000B00021A4096
:030013000214B51F
:01001B0032B2
:03002300021416AE
:01002B0032A2
:01003300329A
:03003B00021508A3
:030043000213D7CE
:0300460002155C44
:02004900E4735E
:0D004B00758166121567E5826003020046AC
:1000580079DDE94400601B7A01902223781F75A09E
:1000680001E493F2A308B8000205A0D9F4DAF27506
:02007800A0FFE7
:06007A00E478FFF6D8FD5A
:100080007800E84400600A799475A000E4F309D888
:10009000FC788BE84400600C7901900094E4F0A3B4
:0400A000D8FCD9FAB5
:1000A40075225C75231575240075250075279475D4
:0B00B4002800E4F53CF53DF53EF53F6B
:0900BF0075191A751A00751B0071
:0E00C8007808E4F608F608F608F6780C7600DC
:0200D600C20066
:0300D800020046DD
:1000DB001208E49000FC7401F075821F1218B590A1
:1000EB0000FC7401F07582201218B59000FC7401AD
:1000FB00F075821E1218B59000FC7401F075820E1B
:10010B001218B59000FC7401F07582221218B5908C
:10011B0000FC7401F075820F1218B59000FC74018D
:10012B00F07582211218B59000FC7401F0758210E5
:10013B001218B59000FC7401F075820B1218B59073
:10014B0000FC7401F07582111218B5121AC0AC8242
:10015B00AD83AEF0FF8C388D398E3A8F3B8C348D5E
:10016B00358E368F379000C67443F07421A3F0742C
:10017B0080A3F09009E91215C91209CA900064E432
:10018B00F5F0121AFD0209CA121AC0858230858356
:10019B003185F032F533120B30E5826031120B37BB
:1001AB0085822FAC30AD31AE32AF338C388D398E7A
:1001BB003A8F3B8C348D358E368F37E4B5240280E5
:1001CB00077401B5240B80030201DD0205840208CC
:1001DB00182274FD2540500302045BE54090213743
:1001EB0093B52F0B7402B54003752500054022E52E
:1001FB004090214093B52F0B7402B5400375250138
:10020B00054022E54090213A93FFB52F028003026F
:10021B00042C7402B5400280030204299000C674BA
:10022B0048F07421A3F07480A3F09009E91215C96A
:10023B009000C6744CF07421A3F07480A3F0900965
:10024B00E91215C9903FFCE493FF7E007D007C0012
:10025B009000D1EFF0EEA3F0EDA3F0ECA3F0900043
:10026B00D57410F09009E91216BC903FFDE493FF92
:10027B007E007D007C009000D1EFF0EEA3F0EDA3AB
:10028B00F0ECA3F09000D57410F09009E91216BCB5
:10029B00903FFEE493FF7E007D007C009000D1EF49
:1002AB00F0EEA3F0EDA3F0ECA3F09000D57410F0FA
:1002BB009009E91216BC903FFFE493FF7E007D008E
:1002CB007C009000D1EFF0EEA3F0EDA3F0ECA3F0E7
:1002DB009000D57410F09009E91216BC903FFAE427
:1002EB0093FF7E007D007C009000D1EFF0EEA3F039
:1002FB00EDA3F0ECA3F09000D57410F09009E91287
:10030B0016BC903FFBE493FF7E007D007C009000C9
:10031B00D1EFF0EEA3F0EDA3F0ECA3F09000D574C9
:10032B0010F09009E91216BC9000C6744CF07421C1
:10033B00A3F07480A3F09009E91215C99000C6745C
:10034B004EF07421A3F07480A3F09009E91215C943
:10035B009000C6744CF07421A3F07480A3F0900944
:10036B00E91215C99000C6745CF07421A3F0748077
:10037B00A3F09009E91215C99000C6744CF07421D2
:10038B00A3F07480A3F09009E91215C99000C6740C
:10039B0065F07421A3F07480A3F09009E91215C9DC
:1003AB009000C6744CF07421A3F07480A3F09009F4
:1003BB00E91215C99000C6746BF07421A3F0748018
:1003CB00A3F09009E91215C99000C6744CF0742182
:1003DB00A3F07480A3F09009E91215C99000C674BC
:1003EB0072F07421A3F07480A3F09009E91215C97F
:1003FB009000C6744CF07421A3F07480A3F09009A4
:10040B00E91215C99000C67474F07421A3F07480BE
:10041B00A3F09009E91215C99009E9121685054058
:10042B0022E54090213D93B52F227402B5401A90DE
:10043B0000C67479F07421A3F07480A3F09009E9DD
:10044B001215C99009E91216850540227540002244
:10045B00E54024F7500122E540240B83F582E5406B
:10046B00240D83F583E473838383848A90969C9F06
:10047B00050505040404040404852F410540228569
:10048B002F42054022852F43054022852F440540EE
:10049B0022054022E4B5250280087401B5250280AF
:1004AB006E22E5426541FF7E00630755AC437D003C
:1004BB00ECB50757EDB50653AC417D007E008E07BA
:1004CB008D068C057C00A842E4F9FAFBE82CF56359
:1004DB00E93DF564EA3EF565EB3FF566900003E414
:1004EB00F5F0121C1585822B85832C85F02DF52EAE
:1004FB00E4F529F52AF563756418F5659000947594
:10050B00F00012189685442675240175400022E5EB
:10051B00426541FF7E00630755AC437D00ECB50798
:10052B0054EDB50650AC417D007E008E078D068CD8
:10053B00057C00A842E4F9FAFBE82CF563E93DF5EC
:10054B0064EA3EF565EB3FF566900003E4F5F012C7
:10055B001C1585822B85832C85F02DF52EE4F52932
:10056B00F52AF563756418F56590009475F0001223
:10057B00189675240175400022C3E529941BE52AC2
:10058B0094005017E5292527F582E52A3528F583B0
:10059B00E52FF00529E4B52902052A152B74FFB5C3
:1005AB002B0C152CB52C07152DB52D02152EE52B67
:1005BB00452C452D452E600122752400E52624F699
:1005CB0050030209CAE526240B83F582E526240E87
:1005DB0083F583E473F42B6299D0073E75ABE10589
:1005EB000606060607070707077E947F00AC29ADB2
:1005FB002A0CBC00010D7D008D028C037C007D005C
:10060B008E008F01E4FEFFE84204E94205EE42034F
:10061B00EF42028C828D838BF0EA121D7A0209CA9B
:10062B007E947F00AC29AD2A0CBC00010D7D008DA2
:10063B00028C037C007D008E008F01E4FEFFE842FC
:10064B0004E94205EE4203EF42028C828D838BF06C
:10065B00EA121DB40209CA7E947F00AC29AD2A0CA4
:10066B00BC00010D7D008D028C037C007D008E0093
:10067B008F01E4FEFFE84204E94205EE4203EF423C
:10068B00028C828D838BF0EA121D400209CA7E9484
:10069B007F00AC29AD2A0CBC00010D7D008D028CB6
:1006AB00037C007D008E008F01E4FEFFE84204E92D
:1006BB004205EE4203EF42028C828D838BF0EA12ED
:1006CB001DEE0209CA7E947F00AC29AD2A0CBC003A
:1006DB00010D7D008D028C037C007D008E008F014F
:1006EB00E4FEFFE84204E94205EE4203EF42028CCE
:1006FB00828D838BF0EA121F010209CA7E947F0060
:10070B00AC29AD2A0CBC00010D7D008D028C037C45
:10071B00007D008E008F01E4FEFFE84204E94205F4
:10072B00EE4203EF42028C828D838BF0EA121EC7DE
:10073B000209CA7E947F00AC29AD2A0CBC00010DC6
:10074B007D008D028C037C007D008E008F01E4FE0A
:10075B00FFE84204E94205EE4203EF42028C828D30
:10076B00838BF0EA121E8D0209CA7E947F00AC299E
:10077B00AD2A0CBC00010D7D008D028C037C007D2D
:10078B00008E008F01E4FEFFE84204E94205EE42D1
:10079B0003EF42028C828D838BF0EA121F3B806A3F
:1007AB007E947F00AC29AD2A0CBC00010D7D008D21
:1007BB00028C037C007D008E008F01E4FEFFE8427B
:1007CB0004E94205EE4203EF42028C828D838BF0EB
:1007DB00EA121C8380347E947F00AC29AD2A0CBCBA
:1007EB0000010D7D008D028C037C007D008E008F3F
:1007FB0001E4FEFFE84204E94205EE4203EF420248
:10080B008C828D838BF0EA121F750209CAE530C307
:10081B009538FCE5319539FDE532953AFEE5339592
:10082B003BFFC3EC94E8ED9403EE9400EF9400507F
:10083B000122E4B5250280077401B5252E8017121D
:10084B0009CAE53E453F7007753E01F53F801CE444
:10085B00F53EF53F80151209CAE53E453F70077519
:10086B003E01F53F8005E4F53EF53F853038853197
:10087B003985323A85333BE53C453D605BE530C31A
:10088B009534FCE5319535FDE5329536FEE533952E
:10089B0037FF853C63853D64756500756600900385
:1008AB00E8E4F5F0C007C006C005C004121C15A88B
:1008BB0082A983AAF0FBD004D005D006D007C3ECE5
:1008CB0098ED99EE9AEF9B400F7524008530348597
:0908DB00313585323685333722B0
:1008E4001213851213AF12139E75DD0075D30075B4
:1008F400D50022900126E4F0900128F0227F0074B4
:10090400F925DB50067D077E008004ADDB7E008F79
:10091400037C00C3EB9DEC64808EF063F08095F063
:100924005017EF241FFDE43401FE8F82758300E02D
:10093400FC8D828E83F00F80C6227F008F057E009F
:10094400C3ED9407EE940050188F057E00EF241F2A
:10095400F582E43401F583E0FC8D828E83F00F8010
:10096400DB90000722900002E0FF900129F0E020D4
:10097400E04690011FE0FCA3E0FDA3E0FEA3E0FF3E
:10098400BCB035BD0432BE002FBF002C75E200C2DE
:10099400AF75100075113890C350121BAE90C35040
:1009A400121BAEAE10AF11C007C0068E828F831229
:1009B4000049D006D00780FE227F00900129E06024
:1009C400027F018F8222900128E0701890012AE0B2
:1009D400FFE060108FD553D4FC9001287401F0908F
:1009E400012AE4F022AF82900129E060617D007E5B
:1009F40000900128E060240DBD00010E900005C0A8
:100A040007C006C005121BAED005D006D007C3ED43
:100A14009450EE94C340DA7582002290012AE0FEDD
:100A2400BE400050207D0074402EFEE43DFDEE24C7
:100A340014F582ED3400F583EFF090012AE02401EF
:100A4400F075820122C0071209CAD007809F7582FF
:100A54000022AFF0AE83E5829000AEF0EEA3F0EF9B
:100A6400A3F0900129E07003020B2C9000ACE0FE8F
:100A7400A3E0FFC3E49E74808FF063F08095F040A0
:100A840003020B2C7E007F00900128E060200EBE44
:100A940000010F900005C007C006121BAED006D09F
:100AA40007C3EE9450EF94C340DE75820022900099
:100AB400AEE0FDA3E0FEA3E0FF9000ACE0FBA3E00A
:100AC400FCC3E49B74808CF063F08095F0509C90A0
:100AD400012AE0FABA400050498A017A0074402998
:100AE400F9E43AFAE92414F9EA3400FA8D828E839F
:100AF4008FF012201EF8A3AD82AE839000AEEDF00D
:100B0400EEA3F0EFA3F089828A83E8F090012AE053
:100B14002401F01BBBFF011C9000ACEBF0ECA3F034
:100B2400809F1209CA020A6F75820022900126E092
:100B3400F58222900126E07003F58222900127E0DD
:100B44002414F582E43400F583E0FF900127E004E7
:100B5400F0900126E014F0E0700353D4F38F822266
:100B6400900126E07003F58222900127E02414F519
:100B740082E43400F583E0FF900127E004F0900163
:100B840026E014F0E0700353D4F38F822275D5006D
:100B940074FC55D44402F5D4900128E4F02230DEEC
:100BA40019900126E5DBF0900127E4F0900126E09E
:0B0BB400600874F355D44408F5D42207
:100BBF00AFDBBF080280030211E1900007E0FE7F68
:100BCF0000900006E0FD7C004FF512EC4EF5138F00
:100BDF001C900001E0F5148F1B900000E0FE5460A4
:100BEF006052900000E0FE5306607D00BE2005BD00
:100BFF000002800CBE4037BD0034751CFF0211E4AB
:100C0F007420B514030211E47421B5140280077423
:100C1F0022B51414800C12093EAD82AE838D1C02D6
:100C2F0011E41209690211E4751CFF0211E4751C2D
:100C3F00FF0211E4E51424F450030211DCE514243F
:100C4F000B83F582E514241083F583E473BCE3DC96
:100C5F00A6DCB174DCBEDAE4E4110F1110110F0C35
:100C6F00110F0F1111900003E0FEBE0102800DBEA7
:100C7F000202801EBE0302802F020F3775162B75DE
:100C8F00170175180090013DE0FDA3E0FE8D1C02D9
:100C9F000F3A75163F75170175180090018AE0FD20
:100CAF00A3E0FE8D1C020F3A900002E0701575163E
:100CBF008C751701F518900190E0FDA3E0FE8D1CD7
:100CCF00020F3A900002E0FEBE01167516C87517A6
:100CDF00017518009001D6E0FDA3E0FE8D1C020FF8
:100CEF003A900002E0FEBE02167516927517017556
:100CFF0018009001AEE0FDA3E0FE8D1C020F3A90AC
:100D0F000002E0FEBE03028003020F0C9000B174DC
:100D1F0030F09000B204F09000B304F09000B404EF
:100D2F00F09000B504F09000B604F09000B704F016
:100D3F009000B804F09000B904F09000BA04F0905D
:100D4F0000BB7441F09000BC04F09000BD04F09023
:100D5F0000BE04F09000BF04F09000C004F09000BB
:100D6F00C1E4F09001D8741AF09001D97403F09097
:100D7F003FFCE493C4540FFE53060F7D00EE24B1E5
:100D8F00F582ED3400F583E09001DAF09001DBE4B9
:100D9F00F0903FFC93FE53060F7D00EE24B1F582D9
:100DAF00ED3400F583E09001DCF09001DDE4F0908C
:100DBF003FFD93C4540FFE53060F7D00EE24B1F593
:100DCF0082ED3400F583E09001DEF09001DFE4F076
:100DDF00903FFD93FE53060F7D00EE24B1F582ED9B
:100DEF003400F583E09001E0F09001E1E4F0903FF2
:100DFF00FE93C4540FFE53060F7D00EE24B1F5820F
:100E0F00ED3400F583E09001E2F09001E3E4F0901F
:100E1F003FFE93FE53060F7D00EE24B1F582ED34B5
:100E2F0000F583E09001E4F09001E5E4F0903FFFDE
:100E3F0093C4540FFE53060F7D00EE24B1F582EDDF
:100E4F003400F583E09001E6F09001E7E4F0903F85
:100E5F00FF93FE53060F7D00EE24B1F582ED3400B3
:100E6F00F583E09001E8F09001E9E4F0903FFA9308
:100E7F00C4540FFE53060F7D00EE24B1F582ED34FE
:100E8F0000F583E09001EAF09001EBE4F0903FFA77
:100E9F0093FE53060F7D00EE24B1F582ED3400F57D
:100EAF0083E09001ECF09001EDE4F0903FFB93C4F0
:100EBF00540FFE53060F7D00EE24B1F582ED340082
:100ECF00F583E09001EEF09001EFE4F0903FFB939B
:100EDF00FE53060F7D00EE24B1F582ED3400F5834D
:100EEF00E0FE9001F0F09001F1E4F075191AF51A97
:100EFF007516D8751701F518751C1A802E900002FB
:100F0F00E0FEBE04157516B0751701751800900137
:100F1F00C6E0FDA3E0FE8D1C80117516D875170174
:100F2F0075180085191C8003751CFF74FFB51C0311
:100F3F000211E4AD1C7E00C3ED9512EE9513500423
:100F4F008D128E13AD12AE13C3ED9408EE940040C4
:100F5F00067B087C008004AB12AC138B1C7C00C397
:100F6F00EC951C50208C027B00EC2516F8E435170D
:100F7F00F9AF18888289838FF012201EF88A828B2E
:100F8F0083F00C80DAAC1C7F00EDC39CFDEE9FFE5E
:100F9F008D128E13E51C2516F516E43517F517027D
:100FAF0011E4900002E0FF8F127513000211E4901C
:100FBF000000E515F0AE12AF13C3EE9401EF9400ED
:100FCF0050030211E4751C010211E4900002E0F5D8
:100FDF00150211E4900000E0541F7030900003E000
:100FEF00FE7F00900002E0FD7C004207EC4206BF4E
:100FFF000114BE0011900146E0FF30E5030211E439
:10100F00751CFF0211E4751CFF0211E4900000E053
:10101F00FF53071F7E00BF0278BE0075900004E0EB
:10102F00FFBF0102805FBF02028049BF030280330E
:10103F00BF0402801DBF81028040BF8202802ABF91
:10104F0083028014BF844474BC55DE4402F5DE0273
:10105F0011E453DE730211E474BC55D64402F5D685
:10106F000211E453D6730211E474BC55D44402F553
:10107F00D40211E453D4730211E474BC55D2440268
:10108F00F5D20211E453D2730211E4751CFF021161
:10109F00E4751CFF0211E4900000E0541F703090C3
:1010AF000003E0FE7F00900002E0FD7C004207ECB1
:1010BF004206BF0114BE0011900146E0FF30E50368
:1010CF000211E4751CFF0211E4751CFF0211E4907C
:1010DF000000E0FF53071F7E00BF0205BE00028025
:1010EF00030211B7900003E0FE7F00900002E0FDC5
:1010FF007C004207EC4206EF4E60030211B29000F3
:10110F0005E0FE7F00900004E0FD7C004207EC420A
:10111F0006BF0106BE00030211A5BF0205BE0002F5
:10112F008060BF0305BE00028044BF0405BE0002FD
:10113F008028BF8105BE00028052BF8205BE00021B
:10114F008036BF8305BE0002801ABF8451BE004E99
:10115F0074BF55DE4403F5DE807B747F55DE440C8F
:10116F00F5DE807174BF55D64403F5D68067747F62
:10117F0055D6440CF5D6805D74BF55D44403F5D4D1
:10118F008053747F55D4440CF5D4804974BF55D225
:10119F004403F5D2803F747F55D2440CF5D2751CB1
:1011AF00FF8032751CFF802D751CFF80289000007A
:1011BF00E4F0900001F0AE12AF13C3EE9402EF947F
:1011CF00004005751C02800D85121C8008751CFFE0
:1011DF008003751CFF74FFB51C077514FF75DCCFFA
:1011EF0022E51C24F74007851CDD75DCC02275DD68
:1011FF000075DCC0227405B5140280707406B51436
:10120F00028003021289AE12AF13C3EE9408EF945B
:10121F000040067C087D008004AC12AD138C637D0A
:10122F0000C3ED956350208D027B00ED2516F8E489
:10123F003517F9AC18888289838CF012201EF88A32
:10124F00828B83F00D80DAAC637D00EEC39CFEEFE2
:10125F009DFF8E128F13E5632516F516E43517F5EE
:10126F00178563DDAEDC6306408EDC22E5E3548038
:10127F00FFE5124FF5E375DC022275DD0075DC0228
:10128F00227420B5140D30DE1012090175DD0085B2
:10129F00DCDC2275DD0043DC022275D30074FC55C3
:1012AF00D24402F5D22220D903021360E5D9540F9C
:1012BF00FFADD95305307E00BD0005BE0002801C76
:1012CF00BD1005BE00028036BD2005BE0002804362
:1012DF00BD3006BE000302134602135EEF24FB501F
:1012EF000302135EEF2F9012F9738008806180095B
:1012FF00805D805B1212908056120BA28051EF24FA
:10130F00FB404CEF2F901318738044804280408035
:10131F003E803CEF24FB4037EF2F90132D73800856
:10132F00800B800E8029802712120480221212A9AE
:10133F00801D120B918018EF24FB4013EF2F901399
:10134F00517380088009800780058003120BBFC28C
:10135F00D930D81575DC0275D21275D41275E30029
:10136F00C2DAC2D9C2D81208F710DA0122E5DA20A0
:10137F00E20375D8FF2275E20053E27F43E229753D
:10138F00E30053E2BF53D1FB75D18043D101224318
:10139F00E10443E10243E10143D81FD2EAD2AF2275
:1013AF007E0A7F008EEE8FEF7E147F008EE48FE536
:1013BF0075EB0C75D21275D4127E007F008EEC8FF8
:0813CF00ED75EA4075DC022215
:1013D700C021C0E0C0F0C082C083C007C006C005FE
:1013E700C004C003C002C001C000C0D075D0001245
:1013F70012B5D0D0D000D001D002D003D004D00590
:10140700D006D007D083D082D0F0D0E0D02132C030
:1014170021C0E0C0F0C082C083C007C006C005C0BD
:1014270004C003C002C001C000C0D075D00030980E
:101437000512203AC298309905122070C299D0D06F
:10144700D000D001D002D003D004D005D006D007F9
:10145700D083D082D0F0D0E0D02132C021C0E0C00C
:10146700F0C082C083C007C006C005C004C003C067
:1014770002C001C000C0D075D0009001F4E0FEA307
:10148700E0FFC007C0068E828F83120049D006D0C6
:1014970007D0D0D000D001D002D003D004D005D0DF
:1014A70006D007D083D082D0F0D0E0D02132C0213F
:1014B700C0E0C0F0C082C083C007C006C005C0043A
:1014C700C003C002C001C000C0D075D0009001F6B3
:1014D700E0FEA3E0FFC007C0068E828F831200499B
:1014E700D006D007D0D0D000D001D002D003D0048E
:1014F700D005D006D007D083D082D0F0D0E0D0215D
:1015070032C021C0E0C0F0C082C083C007C006C09F
:1015170005C004C003C002C001C000C0D075D00020
:101527009001F2E0FEA3E04E600E9001F2E0F8A316
:10153700E0F5838882120049D0D0D000D001D002D4
:10154700D003D004D005D006D007D083D082D0F006
:10155700D0E0D02132121BC61200DB12019380FBB0
:041567007582002267
:10156B00AE82AF839000C2E0FBA3E0FCA3E0FD7A68
:10157B00009000C5E0F9890019E8603F8B828C83ED
:10158B008DF012201EF8A3AB82AC83C007C006C03F
:10159B0005C004C003C002C0011215A98007C00614
:1015AB00C007888222A882D001D002D003D004D0F9
:1015BB0005D006D007E860030A80BB8A8222AE8280
:1015CB00AF839000C6E0FBA3E0FCA3E0FD9000C658
:1015DB00E0F5F0A3E045F07003F582227A008B82F0
:1015EB008C838DF012201EF9A3AB82AC83E9F860DB
:1015FB002CC007C006C005C004C003C00212160DE4
:10160B008007C006C007888222A982D002D003D0EF
:10161B0004D005D006D007E960030A80C18A822274
:10162B00AE82AF839000C9E0FAA3E0FBA3E0FCA37A
:10163B00E0FD9000D1EAF0EBA3F0ECA3F0EDA3F00A
:10164B009000D5740AF08E828F830216BCAE82AFE7
:10165B00839000CDE0FAA3E0FBA3E0FCA3E0FD90B8
:10166B0000F7EAF0EBA3F0ECA3F0EDA3F09000FB96
:10167B00740AF08E828F830217A1AE82AF83C007EC
:10168B00C0061216928008C006C00775820D22ADE7
:10169B0082D006D007C007C0051216A98008C00665
:1016AB00C00775820A22AE82D005D007EE2DF582D7
:1016BB00228582458583469000F6E4F09000D5E0C4
:1016CB00FDBD020050069000D5740AF09000D5E0E5
:1016DB00F5477BF67C009000D1E0F548A3E0F54997
:1016EB00A3E0F54AA3E0F54B85474C754D00754ECD
:1016FB0000754F00854C63854D64854E65854F663F
:10170B00854882854983854AF0E54BC004C00312A6
:10171B001CBDA882854C63854D64854E65854F66DF
:10172B00854882854983854AF0E54BC000121E2807
:10173B00AA82AD83AEF0FFD000D003D0049000D1CD
:10174B00EAF0EDA3F0EEA3F0EFA3F01BBBFF011C3F
:10175B008B068C07B80A005008880574302DFD8065
:10176B0004743728FD8E828F83EDF09000D1E0F565
:10177B00F0A3E042F0A3E042F0A3E045F0600302E7
:10178B0016E19000C6EBF0ECA3F0E4A3F0854582E4
:10179B008546830215C98582508583519000FBE0F5
:1017AB00FD70199000F7E0F9A3E0FAA3E0FBA3E0CA
:1017BB00FC0217BFC050C05189822222BD0A028091
:1017CB000302186C9000F7E0F9A3E0FAA3E0FBA387
:1017DB00E0FC30E76FC004C003C002C0011217ED7C
:1017EB008008C050C05175822D22A882D001D00232
:1017FB00D003D00488529000F7C3E499F0E49AA385
:10180B00F0E49BA3F0E49CA3F09000F7E0F553A366
:10181B00E0F554A3E0F555A3E0F5569000D1E55360
:10182B00F0E554A3F0E555A3F0E556A3F09000D5F1
:10183B00740AF08550828551831216BCAF82E55233
:10184B002FF582229000D1E9F0EAA3F0EBA3F0ECA4
:10185B00A3F09000D5740AF085508285518302164F
:10186B00BC9000F7E0FBA3E0FCA3E0FEA3E0FF903D
:10187B0000D1EBF0ECA3F0EEA3F0EFA3F09000D5CA
:10188B00EDF08550828551830216BCAC82AD83AEE0
:10189B0064AF65BE0004EF600C1F0FE563121BFA0B
:1018AB00A3DEFADFF88C828D8322E582FF9021D3B1
:1018BB0093FEEF9021AB93FF7001229000FCE0FDB3
:1018CB00701BBF0209EEF4FC5292EC529322BF0440
:1018DB0002800122EEF4FC5296EC529722BD0214C8
:1018EB00BF0207EE4292EE429322BF0439EE4296BC
:1018FB00EE429722BD0116BF0208EEF45292EE4261
:10190B009322BF0421EEF45296EE429722BD0316AA
:10191B00BF0208EE4292EEF4529322BF0408EE424D
:10192B0096EEF4FE529722AF82BF0102800FBF02E8
:10193B00028013BF03028017BF04358023E5C62046
:10194B00E22E539DFB22E5C620E325539DF722AEE5
:10195B00C65306047F00BE0117BF0014539DFB2224
:10196B00AEC65306087F00BE0106BF0003539DF7AA
:10197B0022E582FF90218393FEEF9021D393FDEF1D
:10198B009021AB93FF7003F58222EE600D8E82C027
:10199B0007C005121932D005D0077E00BF020280A6
:1019AB000ABF03028009BF040C8008AE908006AE0C
:1019BB00A08002AEB0ED5E600475820122758200DC
:1019CB0022E582FF90218393FEEF9021D393FDEFCD
:1019DB009021AB93FFEE600D8E82C007C0051219EC
:1019EB0032D005D007A2AFE433FEC2AFBF020280F4
:1019FB000ABF03028017BF043680249000FDE070FD
:101A0B0007EDF4FF52908027ED429080229000FD6D
:101A1B00E07007EDF4FF52A08015ED42A08010900E
:101A2B0000FDE07007EDF4FF52B08003ED42B0EE25
:051A3B006002D2AF22A1
:101A4000C0D075D00808B8000D09B900090ABA005D
:101A5000050BBB00010CD0D032A2AFC2AFA808A9C1
:101A600009AA0AAB0BAC8A8588F092AF30F51274E4
:101A7000012C600D08B8000909B900050ABA000177
:101A80000BC3EC9406FCECC313FC75F07DE8A4F8E2
:101A9000ADF075F07DE9A42DF9E435F0FD75F07D2C
:101AA000EAA42DFAE435F0FD75F07DEBA42DFB7D65
:101AB00000EC28F582E93DF583EA3DF5F0EB3D22A7
:101AC000A2AFC2AFA808A909AA0AAB0BAC0C92AF8F
:101AD00075F020E8A4A8F075F020E9A428F582A804
:101AE000F075F020EAA428F583A8F075F020EBA4A7
:101AF00028F9A8F075F020ECA42889F022858257F7
:101B000085835885F059F55A121A5985825B858369
:101B10005C85F05DF55EE55745584559455A7001BD
:101B200022A857A958AA59AB5A855B5F855C608586
:101B30005D61855E62E8494A4B60DBC003C002C05C
:101B400001C000121A59AC82AD83AEF0FFD000D0B4
:101B500001D002D003ECC3955FFCED9560FDEE95DE
:101B600061FEEF9562FFC3EC94E8ED9403EE940000
:101B7000EF940040A118B8FF0919B9FF051ABAFF80
:101B8000011B885789588A598B5A74E8255FF55F7D
:101B900074033560F560E43561F561E43562F56242
:101BA000855F5B85605C85615D85625E8087AE82F6
:101BB000AF83EE4F600F05A105A105A105A11EBED3
:101BC000FF011F80ED2275A15575A1AA74F855B9C2
:101BD0004406F5B975A100901388121BAE759E5D81
:101BE000759D0074F055894402F58953C9EF758CD1
:101BF00006C28DD2A9D28CD2AF2220F71130F613B3
:101C00008883A88220F509F6A8837583002280FEC8
:101C1000F280F5F022AAF0FBE5828563F0A4FCAD2A
:101C2000F0E5838563F0A42DFDE435F0FEE58285C3
:101C300064F0A42DFDE5F03EFEE433FFEA8563F099
:101C4000A42EFEE5F03FFFE5838564F0A42EFEE5BB
:101C5000F03FFFE5828565F0A42EFEE5F03FFFEB47
:101C60008563F0A42FFFEA8564F0A42FFFE5838548
:101C700065F0A42FFFE5828566F0A42F8EF08D839A
:031C80008C822231
:091C8300ABF0A2AFE433FEC2AFE6
:101C8D00E0A3D2913300500A0000000000000000D4
:101C9D000000C291400A000000000000000000009A
:101CAD00530207DADDDBD900C291EE6002D2AF221A
:101CBD00F9E56345644565456660777800C308E5D9
:101CCD006620E73BE56325E0F563E56433F564E500
:101CDD006533F565E56633F566E5829563E58395D0
:101CED0064E5F09565E9956650D4C3E56613F56630
:101CFD00E56513F565E56413F564E56313F563E5D3
:101D0D00829563FCE5839564FDE5F09565FEE995A7
:101D1D00664007F98EF08D838C82C3E56613F566F8
:101D2D00E56513F565E56413F564E56313F563D8AF
:0C1D3D00CEE922ABF0A2AFE433FEC2AF4F
:101D4A00E0A3D2B03300500A0000000000000000F7
:101D5A000000C2B0400A00000000000000000000BD
:101D6A00530207DADDDBD900C2B0EE6002D2AF223D
:091D7A00ABF0A2AFE433FEC2AFEE
:101D8400E0A3D2B13300500A0000000000000000BC
:101D94000000C2B1400A0000000000000000000082
:101DA400530207DADDDBD900C2B1EE6002D2AF2202
:091DB400ABF0A2AFE433FEC2AFB4
:101DBE00E0A3D2B23300500A000000000000000081
:101DCE000000C2B2400A0000000000000000000047
:101DDE00530207DADDDBD900C2B2EE6002D2AF22C7
:091DEE00ABF0A2AFE433FEC2AF7A
:101DF800E0A3D2943300500A000000000000000065
:101E08000000C294400A000000000000000000002A
:101E1800530207DADDDBD900C294EE6002D2AF22AA
:101E2800FB7A20E4FCFDFEFFE5822582F582E5834E
:101E380033F583E5F033F5F0EB33FB4017DAE9804F
:101E480042E5822582F582E58333F583E5F033F5B3
:101E5800F0EB33FBEC33FCED33FDEE33FEEF33FFF9
:101E6800EC9563ED9564EE9565EF95664013EC95FA
:101E780063FCED9564FDEE9565FEEF9566FF438284
:0E1E880001DABEEB22ABF0A2AFE433FEC2AF34
:101E9700E0A3D2B33300500A0000000000000000A6
:101EA7000000C2B3400A000000000000000000006C
:101EB700530207DADDDBD900C2B3EE6002D2AF22EC
:091EC700ABF0A2AFE433FEC2AFA0
:101ED100E0A3D2953300500A00000000000000008A
:101EE1000000C295400A0000000000000000000050
:101EF100530207DADDDBD900C295EE6002D2AF22D0
:091F0100ABF0A2AFE433FEC2AF65
:101F0B00E0A3D2B43300500A000000000000000030
:101F1B000000C2B4400A00000000000000000000F6
:101F2B00530207DADDDBD900C2B4EE6002D2AF2276
:091F3B00ABF0A2AFE433FEC2AF2B
:101F4500E0A3D2963300500A000000000000000014
:101F55000000C296400A00000000000000000000DA
:101F6500530207DADDDBD900C296EE6002D2AF225A
:091F7500ABF0A2AFE433FEC2AFF1
:101F7F00E0A3D2973300500A0000000000000000D9
:101F8F000000C297400A000000000000000000009F
:101F9F00530207DADDDBD900C297EE6002D2AF221F
:101FAF0022AF82BF02005036EF75F002A424F4F581
:101FBF0082740135F0F583E563F0E564A3F0BF00AB
:101FCF00028005BF0118800B9000FEE024FF92886D
:101FDF00D2A8229000FEE0FF24FF928AD2AA22AF5D
:101FEF0082BF02005028BF00028005BF0108800495
:101FFF00C2A88002C2AAEF75F002A424F4FE7401F5
:0F200F0035F0FF8E828F8374AFF0741FA3F02221
:10201E0020F71430F6148883A88220F507E6A883EB
:0C202E0075830022E280F7E49322E02298
:10203A009001F8E0FF7E008F828E83A37563108E75
:10204A0064122101AE829001F9E0FFEEB507012288
:10205A009001F8E024FFF582E43400F583E599F075
:10206A009001F8EEF0223000409001FAE0FF900172
:10207A00FBE0FEEFB50605A200C200229001FBE0DC
:10208A00240FF582E43401F583E0F5999001FBE031
:10209A00FF7E008F828E83A37563108E64122101E6
:0A20AA00AE82AF839001FBEEF0223E
:1020B400E563456460467A01E56325E0F563E5641C
:1020C400334012F564E5829563E583956440030A21
:1020D40080E6C3E56413F564E56313F563C3E58241
:1020E4009563F5F0E58395644005F58385F082C337
:1020F400E56413F564E56313F563DAE122C2D5E51B
:102104008330E70DD2D5E4C39582F582E49583F557
:1021140083E56430E70BE4C39563F563E49564F504
:10212400641220B430D50BE4C39582F582E4958320
:03213400F583220E
:1021370061626E64696466767241646141626E0AC7
:102147000061626E007C00416D62696E6F204661BE
:102157006E48554200414246414E48554200312E95
:10216700302E3200434835353247003500353030A0
:0C217700300046573A20312E302E310047
:10218300000000000000000000000000000000014B
:102193000000000000000000000000000000030435
:1021A3000000020000000000010101010101010122
:1021B3000000020202020202020200000303030300
:1021C30003030303000004040404040404040000E0
:1021D30001020408102040800000010204081020BE
:1021E300408000000102040810204080000001022A
:1021F3000408102040800000FFFFFFFFFFFFFFFFE8
:10220300FFFFFF00FFFF0102FFFFFFFFFFFFFFFFD5
:10221300FFFFFFFFFFFFFFFF03FFFFFFFFFFFFFFC7
:1022230000E100000000080000000000120110019E
:10223300EF020108091250C5010101020301120056
:1022430009024B000201008064080B000202020134
:102253000409040000010202010405240010010521
:10226300240100000424020205240600010705815D
:102273000308004009040100020A000004070502E4
:1022830002400000070582024000004B00040309DE
:102293000404001C0341006D00620069006E006FBE
:1022A300002000460061006E004800750062001CBB
:1022B30000160343004400430020005300650072EE
:1022C30000690061006C0016000E0341006D00629E
:0922D3000069006E006F000E00AE
:1022DC000C0330003100320033003400350036007E
:0A22EC0037003800390041004200BD
:0222F6000000E6
:0422F800AF1FAF1F46
:0422FC0000000000DE
:00000001FF
