:0600000002004B02140097
:03000B000219DEF9
:0300130002145381
:01001B0032B2
:030023000213B411
:01002B0032A2
:01003300329A
:03003B000214A606
:0300430002137530
:030046000214FAA7
:02004900E4735E
:0D004B00758166121505E58260030200460E
:1000580079DDE94400601B7A01902199786775A0E1
:1000680001E493F2A308B8000205A0D9F4DAF27506
:02007800A0FFE7
:06007A00E478FFF6D8FD5A
:100080007800E84400600A799475A000E4F309D888
:10009000FC78D3E84400600C7901900094E4F0A36C
:0400A000D8FCD9FAB5
:1000A4007522FA7523147524007525007527947537
:0B00B4002800E4F53CF53DF53EF53F6B
:0900BF0075191A751A00751B0071
:0E00C8007808E4F608F608F608F6780C7600DC
:0200D600C20066
:0300D800020046DD
:1000DB0012088290010A7401F075820F12150990B3
:1000EB00010A7401F075820E12150990010A740150
:1000FB00F075822012150990010A7401F0758210B7
:10010B0012150990010A7401F075821112150990EC
:10011B00010A7401F075821F12150990010A74010E
:10012B00F075821E12150990010A7401F075820B8D
:10013B0012150990010A7401F075820A12150990C3
:10014B00010A7401F075822112150990010A7401DC
:10015B00F075822212150990010BE4F075822212C0
:10016B001620121A5EAC82AD83AEF0FF8C388D393F
:10017B008E3A8F3B8C348D358E368F3790011074C1
:10018B00E1F07420A3F07480A3F09009871216F2AB
:10019B00120968900064E4F5F0121A9B02096812C8
:1001AB001A5E85823085833185F032F533120ACEA3
:1001BB00E5826031120AD585822FAC30AD31AE327B
:1001CB00AF338C388D398E3A8F3B8C348D358E36E0
:1001DB008F37E4B5240280077401B5240B8003022A
:1001EB0001F40204A40207592274FD2540500302B6
:1001FB000348E5409020D593B52F0B7402B540030F
:10020B00752500054022E5409020DE93B52F0B7439
:10021B0002B54003752501054022E5409020D89397
:10022B00FFB52F0280030203197402B5400280034D
:10023B0002031690011074E6F07420A3F07480A3EF
:10024B00F09009871216F2903FFCE493FF7E007D3D
:10025B00007C0090011BEFF0EEA3F0EDA3F0ECA3FC
:10026B00F090011F7410F09009871217E5903FFD75
:10027B00E493FF7E007D007C0090011BEFF0EEA36A
:10028B00F0EDA3F0ECA3F090011F7410F090098730
:10029B001217E5903FFEE493FF7E007D007C0090FB
:1002AB00011BEFF0EEA3F0EDA3F0ECA3F090011F18
:1002BB007410F09009871217E5903FFFE493FF7ECF
:1002CB00007D007C0090011BEFF0EEA3F0EDA3F09E
:1002DB00ECA3F090011F7410F09009871217E590B2
:1002EB003FFAE493FF7E007D007C0090011BEFF052
:1002FB00EEA3F0EDA3F0ECA3F090011F7410F090BF
:10030B0009871217E59009871217AE054022E540C1
:10031B009020DB93B52F227402B5401A9001107414
:10032B00EAF07420A3F07480A3F09009871216F200
:10033B009009871217AE05402275400022E5402434
:10034B00F7500122E540240B83F582E540240D8311
:10035B00F583E473A3A3A371777D83898C040404D1
:10036B00030303030303852F41054022852F420519
:10037B004022852F43054022852F4405402205400E
:10038B0022E4B5250280097401B52503020421225C
:10039B00E5426541FF7E00630755AC437D00ECB53C
:1003AB000770EDB5066C90010B7401F0758222128B
:1003BB001620AC417D007E008E078D068C057C00DF
:1003CB00A842E4F9FAFBE82CFCE93DFDEA3EFEEB22
:1003DB003FFF74012CF563E43DF564E43EF565E401
:1003EB003FF566900003E4F5F0121BB385822B8575
:1003FB00832C85F02DF52EE4F529F52AF56375642C
:10040B0060F56590009475F0001219BF8544267550
:10041B00240175400022E5426541FF7E00630755CC
:10042B00AC437D00ECB5076DEDB5066990010B741F
:10043B0001F0758222121620AC417D007E008E07E2
:10044B008D068C057C00A842E4F9FAFBE82CFCE94C
:10045B003DFDEA3EFEEB3FFF74012CF563E43DF5F9
:10046B0064E43EF565E43FF566900003E4F5F012B5
:10047B001BB385822B85832C85F02DF52EE4F52976
:10048B00F52AF563756460F56590009475F00012BC
:10049B0019BF75240175400022C3E5299460E52A34
:1004AB0094005019AE29AF2A0529E4B52902052A73
:1004BB00EE2527F582EF3528F583E52FF0152B7404
:1004CB00FFB52B0C152CB52C07152DB52D02152EA4
:1004DB00E52B452C452D452E600122752400E52684
:1004EB0024F6500302074BE526240B83F582E52601
:1004FB00240E83F583E473164F88C1FA336CA5DDA4
:10050B0015050505050506060606077E947F00AC56
:10051B0029AD2AEC24FDFCED34FF7D008D028C030C
:10052B007C007D008E008F01E4FEFFE84204E9426F
:10053B0005EE4203EF42028C828D838BF0EA121E92
:10054B009F02074B7E947F00AC29AD2AEC24FDFC67
:10055B00ED34FF7D008D028C037C007D008E008FBF
:10056B0001E4FEFFE84204E94205EE4203EF4202DA
:10057B008C828D838BF0EA121DC602074B7E947F13
:10058B0000AC29AD2AEC24FDFCED34FF7D008D027F
:10059B008C037C007D008E008F01E4FEFFE842049B
:1005AB00E94205EE4203EF42028C828D838BF0EA27
:1005BB00121D8C02074B7E947F00AC29AD2AEC24D4
:1005CB00FDFCED34FF7D008D028C037C007D008EE5
:1005DB00008F01E4FEFFE84204E94205EE4203EF1F
:1005EB0042028C828D838BF0EA121ED902074B7E5E
:1005FB00947F00AC29AD2AEC24FDFCED34FF7D008B
:10060B008D028C037C007D008E008F01E4FEFFE8E1
:10061B004204E94205EE4203EF42028C828D838B4A
:10062B00F0EA121F1302074B7E947F00AC29AD2A10
:10063B00EC24FDFCED34FF7D008D028C037C007DF2
:10064B00008E008F01E4FEFFE84204E94205EE4212
:10065B0003EF42028C828D838BF0EA121D5202074C
:10066B004B7E947F00AC29AD2AEC24FDFCED34FFCE
:10067B007D008D028C037C007D008E008F01E4FEDB
:10068B00FFE84204E94205EE4203EF42028C828D01
:10069B00838BF0EA121D1802074B7E947F00AC2966
:1006AB00AD2AEC24FDFCED34FF7D008D028C037C28
:1006BB00007D008E008F01E4FEFFE84204E9420555
:1006CB00EE4203EF42028C828D838BF0EA121C5BAD
:1006DB00806E7E947F00AC29AD2AEC24FDFCED34BA
:1006EB00FF7D008D028C037C007D008E008F01E46A
:1006FB00FEFFE84204E94205EE4203EF42028C8220
:10070B008D838BF0EA121C2180367E947F00AC29FE
:10071B00AD2AEC24FDFCED34FF7D008D028C037CB7
:10072B00007D008E008F01E4FEFFE84204E94205E4
:10073B00EE4203EF42028C828D838BF0EA121E6530
:10074B0090010BE4F0758222121620020968E53045
:10075B00C39538FCE5319539FDE532953AFEE53325
:10076B00953BFFC3EC94E8ED9403EE9400EF9400FB
:10077B00500122E4B52502800A7401B52502804A96
:10078B0002081490011074E1F07420A3F07480A39C
:10079B00F09009871216F29009871217AE120968AA
:1007AB00E53E453F7013753E01F53F90010B74011B
:1007BB00F07582221216208050E4F53EF53F900131
:1007CB000BF0758222121620803F90011074F4F00A
:1007DB007420A3F07480A3F09009871216F212090B
:1007EB0068E53E453F7013753E01F53F90010B7474
:1007FB0001F0758222121620800FE4F53EF53F9032
:10080B00010BF0758222121620853038853139851F
:10081B00323A85333BE53C453D605BE530C395346F
:10082B00FCE5319535FDE5329536FEE5339537FF21
:10083B00853C63853D647565007566009003E8E44F
:10084B00F5F0C007C006C005C004121BB3A882A9EF
:10085B0083AAF0FBD004D005D006D007C3EC98EDEB
:10086B0099EE9AEF9B400F75240085303485313516
:07087B008532368533372278
:1008820012132312134D12133C75DD0075D300753C
:10089200D5002290016EE4F0900170F0227F007486
:1008A200F925DB50067D077E008004ADDB7E008FDC
:1008B200037C00C3EB9DEC64808EF063F08095F0C6
:1008C2005017EF2467FDE43401FE8F82758300E048
:1008D200FC8D828E83F00F80C6227F008F057E0002
:1008E200C3ED9407EE940050188F057E00EF246745
:1008F200F582E43401F583E0FC8D828E83F00F8073
:10090200DB90000722900002E0FF900171F0E020EE
:10091200E046900167E0FCA3E0FDA3E0FEA3E0FF58
:10092200BCB035BD0432BE002FBF002C75E200C240
:10093200AF75100075113890C350121B4C90C35004
:10094200121B4CAE10AF11C007C0068E828F8312ED
:100952000049D006D00780FE227F00900171E0603E
:10096200027F018F8222900170E07018900172E084
:10097200FFE060108FD553D4FC9001707401F090A9
:100982000172E4F022AF82900171E060617D007E2D
:1009920000900170E060240DBD00010E900005C0C2
:1009A20007C006C005121B4CD005D006D007C3ED08
:1009B2009450EE94C340DA75820022900172E0FEF8
:1009C200BE400050207D0074402EFEE43DFDEE242A
:1009D20014F582ED3400F583EFF0900172E024010A
:1009E200F075820122C007120968D007809F7582C4
:1009F2000022AFF0AE83E5829000F6F0EEA3F0EFB6
:100A0200A3F0900171E07003020ACA9000F4E0FEC4
:100A1200A3E0FFC3E49E74808FF063F08095F04002
:100A220003020ACA7E007F00900170E060200EBEC1
:100A320000010F900005C007C006121B4CD006D063
:100A420007C3EE9450EF94C340DE758200229000FB
:100A5200F6E0FDA3E0FEA3E0FF9000F4E0FBA3E0DC
:100A6200FCC3E49B74808CF063F08095F0509C9002
:100A72000172E0FABA400050498A017A00744029B2
:100A8200F9E43AFAE92414F9EA3400FA8D828E8301
:100A92008FF0121FBCF8A3AD82AE839000F6EDF08A
:100AA200EEA3F0EFA3F089828A83E8F0900172E06E
:100AB2002401F01BBBFF011C9000F4EBF0ECA3F04F
:100AC200809F120968020A0D7582002290016EE071
:100AD200F5822290016EE07003F5822290016FE0B0
:100AE2002414F582E43400F583E0FF90016FE00402
:100AF200F090016EE014F0E0700353D4F38F822281
:100B020090016EE07003F5822290016FE02414F5EB
:100B120082E43400F583E0FF90016FE004F090017D
:100B22006EE014F0E0700353D4F38F822275D50087
:100B320074FC55D44402F5D4900170E4F02230DE06
:100B42001990016EE5DBF090016FE4F090016EE028
:0B0B5200600874F355D44408F5D42269
:100B5D00AFDBBF0802800302117F900007E0FE7F2C
:100B6D0000900006E0FD7C004FF512EC4EF5138F62
:100B7D001C900001E0F5148F1B900000E0FE546006
:100B8D006052900000E0FE5306607D00BE2005BD62
:100B9D000002800CBE4037BD0034751CFF0211826F
:100BAD007420B514030211827421B51402800774E8
:100BBD0022B51414800C1208DCAD82AE838D1C029C
:100BCD001182120907021182751CFF021182751C18
:100BDD00FF021182E51424F4500302117AE5142466
:100BED000B83F582E514241083F583E4735A817A1F
:100BFD00447A4F127A5C788282110F1110110F0C0A
:100C0D00110F0F1111900003E0FEBE0102800DBE09
:100C1D000202801EBE0302802F020ED5751673755B
:100C2D001701751800900185E0FDA3E0FE8D1C02F3
:100C3D000ED87516877517017518009001D2E0FD55
:100C4D00A3E0FE8D1C020ED8900002E07015751603
:100C5D00D4751701F5189001D8E0FDA3E0FE8D1CA9
:100C6D00020ED8900002E0FEBE0116751610751723
:100C7D000275180090021EE0FDA3E0FE8D1C020E11
:100C8D00D8900002E0FEBE02167516DA75170175D2
:100C9D0018009001F6E0FDA3E0FE8D1C020ED89029
:100CAD000002E0FEBE03028003020EAA9000F9745A
:100CBD0030F09000FA04F09000FB04F09000FC047A
:100CCD00F09000FD04F09000FE04F09000FF04F0A1
:100CDD0090010004F090010104F090010204F090E5
:100CED0001037441F090010404F090010504F090AB
:100CFD00010604F090010704F090010804F0900142
:100D0D0009E4F0900220741AF09002217403F0901F
:100D1D003FFCE493C4540FFE53060F7D00EE24F9FF
:100D2D00F582ED3400F583E0900222F0900223E489
:100D3D00F0903FFC93FE53060F7D00EE24F9F582F3
:100D4D00ED3400F583E0900224F0900225E4F0905C
:100D5D003FFD93C4540FFE53060F7D00EE24F9F5AD
:100D6D0082ED3400F583E0900226F0900227E4F046
:100D7D00903FFD93FE53060F7D00EE24F9F582EDB5
:100D8D003400F583E0900228F0900229E4F0903FC2
:100D9D00FE93C4540FFE53060F7D00EE24F9F58229
:100DAD00ED3400F583E090022AF090022BE4F090F0
:100DBD003FFE93FE53060F7D00EE24F9F582ED34D0
:100DCD0000F583E090022CF090022DE4F0903FFFAF
:100DDD0093C4540FFE53060F7D00EE24F9F582EDFA
:100DED003400F583E090022EF090022FE4F0903F56
:100DFD00FF93FE53060F7D00EE24F9F582ED3400CE
:100E0D00F583E0900230F0900231E4F0903FFA93D8
:100E1D00C4540FFE53060F7D00EE24F9F582ED3418
:100E2D0000F583E0900232F0900233E4F0903FFA47
:100E3D0093FE53060F7D00EE24F9F582ED3400F597
:100E4D0083E0900234F0900235E4F0903FFB93C4C0
:100E5D00540FFE53060F7D00EE24F9F582ED34009C
:100E6D00F583E0900236F0900237E4F0903FFB936B
:100E7D00FE53060F7D00EE24F9F582ED3400F58367
:100E8D00E0FE900238F0900239E4F075191AF51A67
:100E9D00751620751702F518751C1A802E90000214
:100EAD00E0FEBE04157516F8751701751800900251
:100EBD000EE0FDA3E0FE8D1C801175162075170246
:100ECD0075180085191C8003751CFF74FFB51C0374
:100EDD00021182AD1C7E00C3ED9512EE95135004E8
:100EED008D128E13AD12AE13C3ED9408EE94004027
:100EFD00067B087C008004AB12AC138B1C7C00C3FA
:100F0D00EC951C50208C027B00EC2516F8E435176F
:100F1D00F9AF18888289838FF0121FBCF88A828BF3
:100F2D0083F00C80DAAC1C7F00EDC39CFDEE9FFEC0
:100F3D008D128E13E51C2516F516E43517F51702DF
:100F4D001182900002E0FF8F127513000211829042
:100F5D000000E515F0AE12AF13C3EE9401EF94004F
:100F6D005003021182751C01021182900002E0F5FE
:100F7D0015021182900000E0541F7030900003E0C4
:100F8D00FE7F00900002E0FD7C004207EC4206BFB0
:100F9D000114BE001190018EE0FF30E503021182B5
:100FAD00751CFF021182751CFF021182900000E07A
:100FBD00FF53071F7E00BF0278BE0075900004E04E
:100FCD00FFBF0102805FBF02028049BF0302803371
:100FDD00BF0402801DBF81028040BF8202802ABFF4
:100FED0083028014BF844474BC55DE4402F5DE02D6
:100FFD00118253DE7302118274BC55D64402F5D6AC
:10100D0002118253D67302118274BC55D44402F579
:10101D00D402118253D47302118274BC55D244028E
:10102D00F5D202118253D273021182751CFF021187
:10103D0082751CFF021182900000E0541F703090E9
:10104D000003E0FE7F00900002E0FD7C004207EC13
:10105D004206BF0114BE001190018EE0FF30E50382
:10106D00021182751CFF021182751CFF0211829004
:10107D000000E0FF53071F7E00BF0205BE00028087
:10108D0003021155900003E0FE7F00900002E0FD89
:10109D007C004207EC4206EF4E60030211509000B7
:1010AD0005E0FE7F00900004E0FD7C004207EC426D
:1010BD0006BF0106BE0003021143BF0205BE0002BA
:1010CD008060BF0305BE00028044BF0405BE000260
:1010DD008028BF8105BE00028052BF8205BE00027E
:1010ED008036BF8305BE0002801ABF8451BE004EFC
:1010FD0074BF55DE4403F5DE807B747F55DE440CF2
:10110D00F5DE807174BF55D64403F5D68067747FC4
:10111D0055D6440CF5D6805D74BF55D44403F5D433
:10112D008053747F55D4440CF5D4804974BF55D287
:10113D004403F5D2803F747F55D2440CF5D2751C13
:10114D00FF8032751CFF802D751CFF8028900000DC
:10115D00E4F0900001F0AE12AF13C3EE9402EF94E1
:10116D00004005751C02800D85121C8008751CFF42
:10117D008003751CFF74FFB51C077514FF75DCCF5C
:10118D0022E51C24F74007851CDD75DCC02275DDCA
:10119D000075DCC0227405B5140280707406B51498
:1011AD00028003021227AE12AF13C3EE9408EF9420
:1011BD000040067C087D008004AC12AD138C637D6D
:1011CD0000C3ED956350208D027B00ED2516F8E4EC
:1011DD003517F9AC18888289838CF0121FBCF88AF8
:1011ED00828B83F00D80DAAC637D00EEC39CFEEF45
:1011FD009DFF8E128F13E5632516F516E43517F551
:10120D00178563DDAEDC6306408EDC22E5E354809A
:10121D00FFE5124FF5E375DC022275DD0075DC028A
:10122D00227420B5140D30DE1012089F75DD008577
:10123D00DCDC2275DD0043DC022275D30074FC5525
:10124D00D24402F5D22220D9030212FEE5D9540F61
:10125D00FFADD95305307E00BD0005BE0002801CD8
:10126D00BD1005BE00028036BD2005BE00028043C4
:10127D00BD3006BE00030212E40212FCEF24FB5047
:10128D00030212FCEF2F9012977380088061800982
:10129D00805D805B12122E8056120B408051EF2420
:1012AD00FB404CEF2F9012B67380448042804080FB
:1012BD003E803CEF24FB4037EF2F9012CB7380081C
:1012CD00800B800E802980271211A28022121247D6
:1012DD00801D120B2F8018EF24FB4013EF2F90125F
:1012ED00EF7380088009800780058003120B5DC2B3
:1012FD00D930D81575DC0275D21275D41275E3008C
:10130D00C2DAC2D9C2D812089510DA0122E5DA2064
:10131D00E20375D8FF2275E20053E27F43E229759F
:10132D00E30053E2BF53D1FB75D18043D10122437A
:10133D00E10443E10243E10143D81FD2EAD2AF22D7
:10134D007E0A7F008EEE8FEF7E147F008EE48FE598
:10135D0075EB0C75D21275D4127E007F008EEC8F5A
:08136D00ED75EA4075DC022277
:10137500C021C0E0C0F0C082C083C007C006C00560
:10138500C004C003C002C001C000C0D075D00012A7
:101395001253D0D0D000D001D002D003D004D00554
:1013A500D006D007D083D082D0F0D0E0D02132C093
:1013B50021C0E0C0F0C082C083C007C006C005C020
:1013C50004C003C002C001C000C0D075D000309871
:1013D50005121FD8C29830990512200EC299D0D097
:1013E500D000D001D002D003D004D005D006D0075C
:1013F500D083D082D0F0D0E0D02132C021C0E0C06F
:10140500F0C082C083C007C006C005C004C003C0C9
:1014150002C001C000C0D075D00090023CE0FEA320
:10142500E0FFC007C0068E828F83120049D006D028
:1014350007D0D0D000D001D002D003D004D005D041
:1014450006D007D083D082D0F0D0E0D02132C021A1
:10145500C0E0C0F0C082C083C007C006C005C0049C
:10146500C003C002C001C000C0D075D00090023ECC
:10147500E0FEA3E0FFC007C0068E828F83120049FD
:10148500D006D007D0D0D000D001D002D003D004F0
:10149500D005D006D007D083D082D0F0D0E0D021BF
:1014A50032C021C0E0C0F0C082C083C007C006C002
:1014B50005C004C003C002C001C000C0D075D00083
:1014C50090023AE0FEA3E04E600E90023AE0F8A3E7
:1014D500E0F5838882120049D0D0D000D001D00237
:1014E500D003D004D005D006D007D083D082D0F069
:1014F500D0E0D02132121B641200DB1201AA80FB5E
:0415050075820022C9
:10150900E582FF90214993FEEF90212193FF70011D
:101519002290010AE0FD701BBF0209EEF4FC529211
:10152900EC529322BF0402800122EEF4FC5296ECA5
:10153900529722BD0214BF0207EE4292EE42932255
:10154900BF0439EE4296EE429722BD0116BF02084A
:10155900EEF45292EE429322BF0421EEF45296EE3B
:10156900429722BD0316BF0208EE4292EEF452934F
:1015790022BF0408EE4296EEF4FE529722AF82BFD4
:101589000102800FBF02028013BF03028017BF044C
:10159900358023E5C620E22E539DFB22E5C620E3D4
:1015A90025539DF722AEC65306047F00BE0117BF1F
:1015B9000014539DFB22AEC65306087F00BE0106E8
:1015C900BF0003539DF722E582FF9020F993FEEFB8
:1015D90090214993FDEF90212193FF7003F5822219
:1015E900EE600D8E82C007C005121586D005D007A2
:1015F9007E00BF0202800ABF03028009BF040C807B
:1016090008AE908006AEA08002AEB0ED5E600475B3
:1016190082012275820022E582FF9020F993FEEF74
:1016290090214993FDEF90212193FFEE600D8E8269
:10163900C007C005121586D005D007A2AFE433FE56
:10164900C2AFBF0202800ABF03028017BF043680FF
:101659002490010BE07007EDF4FF52908027ED42D2
:1016690090802290010BE07007EDF4FF52A08015E5
:10167900ED42A0801090010BE07007EDF4FF52B02D
:0B1689008003ED42B0EE6002D2AF2201
:10169400AE82AF8390010CE0FBA3E0FCA3E0FD7AF3
:1016A4000090010FE0F9890019E8603F8B828C8378
:1016B4008DF0121FBCF8A3AB82AC83C007C006C078
:1016C40005C004C003C002C0011216D28007C006C0
:1016D400C007888222A882D001D002D003D004D0CF
:1016E40005D006D007E860030A80BB8A8222AE8256
:1016F400AF83900110E0FBA3E0FCA3E0FD90011098
:10170400E0F5F0A3E045F07003F582227A008B82C5
:101714008C838DF0121FBCF9A3AB82AC83E9F86013
:101724002CC007C006C005C004C003C0021217368F
:101734008007C006C007888222A982D002D003D0C5
:1017440004D005D006D007E960030A80C18A82224A
:10175400AE82AF83900113E0FAA3E0FBA3E0FCA305
:10176400E0FD90011BEAF0EBA3F0ECA3F0EDA3F095
:1017740090011F740AF08E828F830217E5AE82AF48
:1017840083900117E0FAA3E0FBA3E0FCA3E0FD9043
:101794000141EAF0EBA3F0ECA3F0EDA3F0900145D6
:1017A400740AF08E828F830218CAAE82AF83C00798
:1017B400C0061217BB8008C006C00775820D22AD93
:1017C40082D006D007C007C0051217D28008C00611
:1017D400C00775820A22AE82D005D007EE2DF582AD
:1017E40022858245858346900140E4F090011FE004
:1017F400FDBD0200500690011F740AF090011FE025
:10180400F5477B407C0190011BE0F548A3E0F549D6
:10181400A3E0F54AA3E0F54B85474C754D00754EA2
:1018240000754F00854C63854D64854E65854F6614
:10183400854882854983854AF0E54BC004C003127C
:101844001C95A882854C63854D64854E65854F66DD
:10185400854882854983854AF0E54BC000121E0005
:10186400AA82AD83AEF0FFD000D003D00490011B58
:10187400EAF0EDA3F0EEA3F0EFA3F01BBBFF011C15
:101884008B068C07B80A005008880574302DFD803B
:1018940004743728FD8E828F83EDF090011BE0F5F0
:1018A400F0A3E042F0A3E042F0A3E045F0600302BD
:1018B400180A900110EBF0ECA3F0E4A3F085458244
:1018C4008546830216F2858250858351900145E056
:1018D400FD7019900141E0F9A3E0FAA3E0FBA3E055
:1018E400FC0218E8C050C05189822222BD0A02803D
:1018F40003021995900141E0F9A3E0FAA3E0FBA3E8
:10190400E0FC30E76FC004C003C002C00112191626
:101914008008C050C05175822D22A882D001D00207
:10192400D003D0048852900141C3E499F0E49AA30F
:10193400F0E49BA3F0E49CA3F0900141E0F553A3F1
:10194400E0F554A3E0F555A3E0F55690011BE553EB
:10195400F0E554A3F0E555A3F0E556A3F090011F7C
:10196400740AF08550828551831217E5AF82E552DF
:101974002FF5822290011BE9F0EAA3F0EBA3F0EC2F
:10198400A3F090011F740AF08550828551830217D9
:10199400E5900141E0FBA3E0FCA3E0FEA3E0FF909F
:1019A400011BEBF0ECA3F0EEA3F0EFA3F090011F0A
:1019B400EDF08550828551830217E5AC82AD83AE8C
:1019C40064AF65BE0004EF600C1F0FE563121B9843
:0A19D400A3DEFADFF88C828D832277
:1019DE00C0D075D00808B8000D09B900090ABA00C0
:1019EE00050BBB00010CD0D032A2AFC2AFA808A924
:1019FE0009AA0AAB0BAC8A8588F092AF30F5127447
:101A0E00012C600D08B8000909B900050ABA0001D9
:101A1E000BC3EC9406FCECC313FC75F07DE8A4F844
:101A2E00ADF075F07DE9A42DF9E435F0FD75F07D8E
:101A3E00EAA42DFAE435F0FD75F07DEBA42DFB7DC7
:101A4E0000EC28F582E93DF583EA3DF5F0EB3D2209
:101A5E00A2AFC2AFA808A909AA0AAB0BAC0C92AFF1
:101A6E0075F020E8A4A8F075F020E9A428F582A866
:101A7E00F075F020EAA428F583A8F075F020EBA409
:101A8E0028F9A8F075F020ECA42889F02285825759
:101A9E0085835885F059F55A1219F785825B85832F
:101AAE005C85F05DF55EE55745584559455A700120
:101ABE0022A857A958AA59AB5A855B5F855C6085E9
:101ACE005D61855E62E8494A4B60DBC003C002C0BF
:101ADE0001C0001219F7AC82AD83AEF0FFD000D07A
:101AEE0001D002D003ECC3955FFCED9560FDEE9541
:101AFE0061FEEF9562FFC3EC94E8ED9403EE940063
:101B0E00EF940040A118B8FF0919B9FF051ABAFFE2
:101B1E00011B885789588A598B5A74E8255FF55FDF
:101B2E0074033560F560E43561F561E43562F562A4
:101B3E00855F5B85605C85615D85625E8087AE8258
:101B4E00AF83EE4F600F05A105A105A105A11EBE35
:101B5E00FF011F80ED2275A15575A1AA74F855B924
:101B6E004406F5B975A100901388121B4C759E5D45
:101B7E00759D0074F055894402F58953C9EF758C33
:101B8E0006C28DD2A9D28CD2AF2220F71130F61315
:101B9E008883A88220F509F6A8837583002280FE2B
:101BAE00F280F5F022AAF0FBE5828563F0A4FCAD8D
:101BBE00F0E5838563F0A42DFDE435F0FEE5828526
:101BCE0064F0A42DFDE5F03EFEE433FFEA8563F0FC
:101BDE00A42EFEE5F03FFFE5838564F0A42EFEE51E
:101BEE00F03FFFE5828565F0A42EFEE5F03FFFEBAA
:101BFE008563F0A42FFFEA8564F0A42FFFE58385AB
:101C0E0065F0A42FFFE5828566F0A42F8EF08D83FC
:031C1E008C822293
:091C2100ABF0A2AFE433FEC2AF48
:101C2B00E0A3D2903300500A000000000000000037
:101C3B000000C290400A00000000000000000000FD
:101C4B00530207DADDDBD900C290EE6002D2AF227D
:091C5B00ABF0A2AFE433FEC2AF0E
:101C6500E0A3D2913300500A0000000000000000FC
:101C75000000C291400A00000000000000000000C2
:101C8500530207DADDDBD900C291EE6002D2AF2242
:101C9500F9E56345644565456660777800C308E501
:101CA5006620E73BE56325E0F563E56433F564E528
:101CB5006533F565E56633F566E5829563E58395F8
:101CC50064E5F09565E9956650D4C3E56613F56658
:101CD500E56513F565E56413F564E56313F563E5FB
:101CE500829563FCE5839564FDE5F09565FEE995D0
:101CF500664007F98EF08D838C82C3E56613F56621
:101D0500E56513F565E56413F564E56313F563D8D7
:0C1D1500CEE922ABF0A2AFE433FEC2AF77
:101D2200E0A3D2B03300500A00000000000000001F
:101D32000000C2B0400A00000000000000000000E5
:101D4200530207DADDDBD900C2B0EE6002D2AF2265
:091D5200ABF0A2AFE433FEC2AF16
:101D5C00E0A3D2B13300500A0000000000000000E4
:101D6C000000C2B1400A00000000000000000000AA
:101D7C00530207DADDDBD900C2B1EE6002D2AF222A
:091D8C00ABF0A2AFE433FEC2AFDC
:101D9600E0A3D2B23300500A0000000000000000A9
:101DA6000000C2B2400A000000000000000000006F
:101DB600530207DADDDBD900C2B2EE6002D2AF22EF
:091DC600ABF0A2AFE433FEC2AFA2
:101DD000E0A3D2943300500A00000000000000008D
:101DE0000000C294400A0000000000000000000053
:101DF000530207DADDDBD900C294EE6002D2AF22D3
:101E0000FB7A20E4FCFDFEFFE5822582F582E58376
:101E100033F583E5F033F5F0EB33FB4017DAE98077
:101E200042E5822582F582E58333F583E5F033F5DB
:101E3000F0EB33FBEC33FCED33FDEE33FEEF33FF21
:101E4000EC9563ED9564EE9565EF95664013EC9522
:101E500063FCED9564FDEE9565FEEF9566FF4382AC
:0E1E600001DABEEB22ABF0A2AFE433FEC2AF5C
:101E6F00E0A3D2B33300500A0000000000000000CE
:101E7F000000C2B3400A0000000000000000000094
:101E8F00530207DADDDBD900C2B3EE6002D2AF2214
:091E9F00ABF0A2AFE433FEC2AFC8
:101EA900E0A3D2953300500A0000000000000000B2
:101EB9000000C295400A0000000000000000000078
:101EC900530207DADDDBD900C295EE6002D2AF22F8
:091ED900ABF0A2AFE433FEC2AF8E
:101EE300E0A3D2963300500A000000000000000077
:101EF3000000C296400A000000000000000000003D
:101F0300530207DADDDBD900C296EE6002D2AF22BC
:091F1300ABF0A2AFE433FEC2AF53
:101F1D00E0A3D2973300500A00000000000000003B
:101F2D000000C297400A0000000000000000000001
:101F3D00530207DADDDBD900C297EE6002D2AF2281
:101F4D0022AF82BF02005036EF75F002A4243CF59B
:101F5D0082740235F0F583E563F0E564A3F0BF000C
:101F6D00028005BF0118800B900146E024FF928886
:101F7D00D2A822900146E0FF24FF928AD2AA22AF76
:101F8D0082BF02005028BF00028005BF01088004F7
:101F9D00C2A88002C2AAEF75F002A4243CFE74020E
:0F1FAD0035F0FF8E828F83744DF0741FA3F022E6
:101FBC0020F71430F6148883A88220F507E6A8834E
:0C1FCC0075830022E280F7E49322E022FB
:101FD800900240E0FF7E008F828E83A37563108E8F
:101FE8006412209FAE82900241E0FFEEB507012205
:101FF800900240E02447F582E43401F583E599F046
:10200800900240EEF022300040900242E0FF900241
:1020180043E0FEEFB50605A200C20022900243E0AD
:102028002457F582E43401F583E0F599900243E002
:10203800FF7E008F828E83A37563108E6412209FAB
:0A204800AE82AF83900243EEF02257
:10205200E563456460467A01E56325E0F563E5647E
:10206200334012F564E5829563E583956440030A83
:1020720080E6C3E56413F564E56313F563C3E582A3
:102082009563F5F0E58395644005F58385F082C399
:10209200E56413F564E56313F563DAE122C2D5E57D
:1020A2008330E70DD2D5E4C39582F582E49583F5BA
:1020B20083E56430E70BE4C39563F563E49564F567
:1020C2006412205230D50BE4C39582F582E49583E5
:0320D200F5832271
:1020D50061626E64696466767241646141626E0A2A
:1020E5000049443A0046573A20312E302E310041FE
:0420F50064610A0018
:1020F90000000000000000000000000000000001D6
:1021090000000000000000000000000000000304BF
:1021190000000200000000000101010101010101AC
:10212900000002020202020202020000030303038A
:10213900030303030000040404040404040400006A
:102149000102040810204080000001020408102048
:1021590040800000010204081020408000000102B4
:102169000408102040800000FFFFFFFFFFFFFFFF72
:10217900FFFFFF00FFFF0102FFFFFFFFFFFFFFFF60
:10218900FFFFFFFFFFFFFFFF03FFFFFFFFFFFFFF52
:1021990000E1000000000800000000001201100129
:1021A900EF020108091250C50101010203011200E1
:1021B90009024B000201008064080B0002020201BF
:1021C90004090400000102020104052400100105AC
:1021D90024010000042402020524060001070581E8
:1021E9000308004009040100020A0000040705026F
:1021F90002400000070582024000004B0004030969
:102209000404001C0341006D00620069006E006F48
:10221900002000460061006E004800750062001C45
:102229000016034300440043002000530065007278
:1022390000690061006C0016000E0341006D006228
:092249000069006E006F000E0038
:102252000C03300031003200330034003500360008
:0A2262003700380039004100420047
:02226C00000070
:04226E004D1F4D1F94
:042272000000000068
:00000001FF
