:0600000002006B0215690D
:03000B00021B8F46
:030013000215BC17
:01001B0032B2
:030023000214D1F3
:03002B000220614F
:01003300329A
:03003B0002160F9B
:0300430002149212
:01004B003282
:0300530002151D76
:01005B003272
:03006300021FA4D5
:030066000216631C
:02006900E4733E
:0D006B0075816912166EE582600302006661
:1000780079E1E94400601B7A019025B8786E75A093
:1000880001E493F2A308B8000205A0D9F4DAF275E6
:02009800A0FFC7
:06009A00E478FFF6D8FD3A
:1000A0007800E84400600A799475A000E4F309D868
:1000B000FC78DAE84400600C7901900094E4F0A345
:0400C000D8FCD9FA95
:1000C4007522637523167524007525007526007541
:1000D4002701752A94752B00E4F53FF540F541F5A9
:0100E40042D9
:0900E50075191A751A00751B004B
:0E00EE007808E4F608F608F608F6780C7600B6
:0200FC00C2033D
:0200FE00C2043A
:0301000002006694
:100104001209989000F07401F075821F1216729013
:1001140000F07401F07582201216729000F07401E0
:10012400F075821E1216729000F07401F075820E42
:100134001216729000F07401F075822212167290F9
:1001440000F07401F075820F1216729000F07401C1
:10015400F07582211216729000F07401F07582100D
:100164001216729000F07401F075820B12167290E0
:1001740000F07401F0758211121672121C0FAC8219
:10018400AD83AEF0FF8C3B8D3C8E3D8F3E8C378D26
:10019400388E398F3A9000F674F1F07424A3F07419
:1001A40080A3F0900AA312185C120A84900064E4FD
:1001B400F5F0121C4C020A84E5276006752700122C
:1001C400021A121C0F85823385833485F035F53687
:1001D400120BEAE582603B120BF1858232AC33AD3F
:1001E40034AE35AF368C3B8D3C8E3D8F3E8C378D97
:1001F400388E398F3AE4B52402800E7401B5240296
:10020400800A7402B5240E80060203050206370232
:1002140005D30208CB227F00BF0A00504C8F82C056
:1002240007121B7FE582D007701B7582C88F83C0BD
:1002340007121B49D007EF24D0F582E43400F5837C
:1002440074C8F08021EF24D0FDE43400FE8F82C016
:1002540007C006C005121B7FAC82D005D006D007AC
:100264008D828E83ECF00F80AF9000F17401F075F5
:10027400821E1217899000F17401F075821F121703
:1002840089902580E4F5F0121D74758261121E3385
:10029400758262121E3375826E121E3375820012CD
:1002A4001E33758200121E33758200121E33852997
:1002B40082121E33758200121E33758200121E33A1
:1002C4007F00BF0A005017EF24D0F582E43400F514
:1002D40083E0F582C007121E33D0070F80E490013B
:1002E400F4E4F5F0121C4C9000F674F6F07424A3B8
:1002F400F07480A3F0900AA312185C900AA3021968
:100304001874FD254350030204A6E5439024CB93BF
:10031400B5320E7402B543067525007526000543F3
:1003240022E5439024D793B5320B7402B543037589
:100334002501054322E5439024CE93FFB532028084
:100344000302044B7402B54302800302044875821D
:100354000F120AA375820C120AA375825D120AA3F6
:10036400758206120AA3903FFCE493F582120AA355
:10037400903FFDE493F582120AA3903FFEE493F5C7
:1003840082120AA3903FFFE493F582120AA3903FDE
:10039400FAE493F582120AA3903FFBE493F58212E8
:1003A4000AA375820D120AA37E007F00C3EE940D8A
:1003B400EF648094805020EE24DAF582EF3424F543
:1003C40083E493F582C007C006120AA3D006D007BF
:1003D4000EBE00D80F80D5758205120AA37E007F59
:1003E40000C3EE9405EF648094805020EE24E7F57A
:1003F40082EF3424F583E493F582C007C006120A21
:10040400A3D006D0070EBE00D80F80D57582051282
:100414000AA37E007F00C3EE9405EF6480948050AD
:1004240020EE24ECF582EF3424F583E493F582C0C6
:1004340007C006120AA3D006D0070EBE00D80F804C
:10044400D5754300054322E5439024D193B5320E7C
:100454007402B54306752500752601054322E5435C
:100464009024D493FFB532367402B5432E75820FAF
:10047400120AA375820C120AA375825D120AA3756F
:10048400820A120AA37F00BF0A00500F8F82C0079E
:10049400121B7F120AA3D0070F80EC054322754379
:1004A4000022E54324F7500122E543240B83F5821F
:1004B400E543240D83F583E473D2D2D2CFD5DBE1B7
:1004C400E7EA0505050404040404048532440543ED
:1004D400228532450543228532460543228532472B
:1004E400054322054322E4B5250280097401B5259C
:1004F4000302057522E4B5260280087401B52602BC
:10050400806122E54565446455B54653AC447D009D
:100514007E008E078D068C057C00A845E4F9FAFB65
:10052400E82CF566E93DF567EA3EF568EB3FF569C9
:10053400900003E4F5F0121FF385822E85832F8546
:10054400F030F531E4F52CF52DF56675673CF5686A
:1005540090009475F000121B2A85472875240175B4
:10056400430022E4F52CF52D854729752402F54333
:1005740022E54565446455FFB54650AC447D007E94
:10058400008E078D068C057C00A845E4F9FAFBE88B
:100594002CF566E93DF567EA3EF568EB3FF56990B1
:1005A4000003E4F5F0121FF385822E85832F85F076
:1005B40030F531E4F52CF52DF56675673CF568905A
:1005C400009475F000121B2A75240175430022C3A0
:1005D400E52C940AE52D94005018E52C24D0F582DE
:1005E400E52D3400F583E532F0052CE4B52C430504
:1005F4002D227F00BF0A005019EF24D0F582E43485
:1006040000F583E0F5828F83C007121B49D0070FE2
:1006140080E29000F67408F07425A3F07480A3F0CF
:10062400900AA312185C900AA31219187527017571
:10063400240022C3E52C943FE52D94005017E52CAB
:10064400252AF582E52D352BF583E532F0052CE4DA
:10065400B52C02052D152E74FFB52E0C152FB52FB4
:10066400071530B530021531E52E452F453045319B
:10067400600122752400E52824F65003020A84E56B
:1006840028240B83F582E528240E83F583E473A7DD
:10069400DE154C83BAF1285E9406060707070707A0
:1006A4000808087E947F00AC2CAD2D0CBC00010D15
:1006B4007D008D028C037C007D008E008F01E4FEA2
:1006C400FFE84204E94205EE4203EF42028C828DC8
:1006D400838BF0EA12215A020A847E947F00AC2CA8
:1006E400AD2D0CBC00010D7D008D028C037C007DC2
:1006F400008E008F01E4FEFFE84204E94205EE4269
:1007040003EF42028C828D838BF0EA122194020A59
:10071400847E947F00AC2CAD2D0CBC00010D7D00BB
:100724008D028C037C007D008E008F01E4FEFFE8C7
:100734004204E94205EE4203EF42028C828D838B30
:10074400F0EA122120020A847E947F00AC2CAD2DA5
:100754000CBC00010D7D008D028C037C007D008E9D
:10076400008F01E4FEFFE84204E94205EE4203EF94
:1007740042028C828D838BF0EA1221CE020A847E9F
:10078400947F00AC2CAD2D0CBC00010D7D008D02BE
:100794008C037C007D008E008F01E4FEFFE84204A0
:1007A400E94205EE4203EF42028C828D838BF0EA2C
:1007B4001222E1020A847E947F00AC2CAD2D0CBC85
:1007C40000010D7D008D028C037C007D008E008F66
:1007D40001E4FEFFE84204E94205EE4203EF42026F
:1007E4008C828D838BF0EA1222A7020A847E947F86
:1007F40000AC2CAD2D0CBC00010D7D008D028C03D2
:100804007C007D008E008F01E4FEFFE84204E94293
:1008140005EE4203EF42028C828D838BF0EA1222B2
:100824006D020A847E947F00AC2CAD2D0CBC0001BB
:100834000D7D008D028C037C007D008E008F01E411
:10084400FEFFE84204E94205EE4203EF42028C82D5
:100854008D838BF0EA12231B806A7E947F00AC2C7C
:10086400AD2D0CBC00010D7D008D028C037C007D40
:10087400008E008F01E4FEFFE84204E94205EE42E7
:1008840003EF42028C828D838BF0EA122063803462
:100894007E947F00AC2CAD2D0CBC00010D7D008D31
:1008A400028C037C007D008E008F01E4FEFFE84291
:1008B40004E94205EE4203EF42028C828D838BF001
:1008C400EA122355020A84E533C3953BFCE53495CB
:1008D4003CFDE535953DFEE536953EFFC3EC94E8D9
:1008E400ED9403EE9400EF9400500122E4B5250248
:1008F40080077401B5252E8017120A84E54145420C
:100904007007754101F542801CE4F541F5428015FC
:10091400120A84E54145427007754101F54280059C
:10092400E4F541F54285333B85343C85353D8536D8
:100934003EE53F4540605BE533C39537FCE53495C0
:1009440038FDE5359539FEE536953AFF853F6685F0
:1009540040677568007569009003E8E4F5F0C00726
:10096400C006C005C004121FF3A882A983AAF0FB25
:10097400D004D005D006D007C3EC98ED99EE9AEFD9
:100984009B400F7524008533378534388535398588
:03099400363A22CE
:1009980012144012146A12145975DD0075D30075CB
:1009A800D50022900175E4F0900177F0227F00C312
:1009B800E5DB9407920040067D077E008004ADDBEE
:1009C8007E008F037C00C3EB9DEC64808EF063F0A7
:1009D8008095F05017EF246EFDE43401FE8F827588
:1009E8008300E0FC8D828E83F00F80C3227F008F0E
:1009F800057E00C3ED9407EE940050188F057E0025
:100A0800EF246EF582E43401F583E0FC8D828E8359
:100A1800F00F80DB90000722900002E0FF90017841
:100A2800F0E020E04690016EE0FCA3E0FDA3E0FECC
:100A3800A3E0FFBCB035BD0432BE002FBF002C754B
:100A4800E200C2AF75100075113890C350121CFD3A
:100A580090C350121CFDAE10AF11C007C0068E82A5
:100A68008F83120069D006D00780FE227566009039
:100A78000178E0600375660185668222900177E05F
:100A88007018900179E0FFE060108FD553D4FC9086
:100A980001777401F0900179E4F022AF8290017837
:100AA800E060617D007E00900177E060240DBD006C
:100AB800010E900005C007C006C005121CFDD00538
:100AC800D006D007C3ED9450EE94C340DA75820087
:100AD80022900179E0FEBE400050207D0074402E37
:100AE800FEE43DFDEE2414F582ED3400F583EFF0CD
:100AF800900179E02401F075820122C007120A846E
:100B0800D007809F75820022AFF0AE83E582900007
:100B1800DCF0EEA3F0EFA3F0900178E07003020B95
:100B2800E69000DAE0FEA3E0FFC3E49E74808FF055
:100B380063F08095F04003020BE67E007F00900191
:100B480077E060200EBE00010F900005C007C006C8
:100B5800121CFDD006D007C3EE9450EF94C340DEBC
:100B6800758200229000DCE0FDA3E0FEA3E0FF9088
:100B780000DAE0FBA3E0FCC3E49B74808CF063F034
:100B88008095F0509C900179E0FABA400050498A6B
:100B9800017A00744029F9E43AFAE92414F9EA34AC
:100BA80000FA8D828E838FF01223FFF8A3AD82AEF8
:100BB800839000DCEDF0EEA3F0EFA3F089828A8346
:100BC800E8F0900179E02401F01BBBFF011C9000C4
:100BD800DAEBF0ECA3F0809F120A84020B297582ED
:100BE8000022900175E0F58222900175E07003F50E
:100BF8008222900176E02414F582E43400F583E043
:100C0800FF900176E004F0900175E014F0E07003C5
:100C180053D4F38F8222900175E07003F5822290FD
:100C28000176E02414F582E43400F583E0FF9001B6
:100C380076E004F0900175E014F0E0700353D4F30B
:100C48008F822275D50074FC55D44402F5D49001E6
:100C580077E4F02230DE19900175E5DBF09001763B
:100C6800E4F0900175E0600874F355D44408F5D4B5
:010C78002259
:100C7A00AFDBBF0802800302129E900007E0FE7FEE
:100C8A0000900006E0FD7C004FF512EC4EF5138F44
:100C9A001C900001E0F5148F1B900000E0FE5460E8
:100CAA006052900000E0FE5306607D00BE2005BD44
:100CBA000002800CBE4037BD0034751CFF0212A131
:100CCA007420B514030212A17421B51402800774AA
:100CDA0022B51414800C1209F5AD82AE838D1C0264
:100CEA0012A1120A200212A1751CFF0212A1751C80
:100CFA00FF0212A1E51424F45003021299E5142408
:100D0A000B83F582E514241083F583E47379A099A3
:100D1A0063996E2F997B97A1A11210121112100DCF
:100D2A001210101212900003E0FEBE0102800DBEE6
:100D3A000202801EBE0302802F020FF275167A7518
:100D4A00170175180090018CE0FDA3E0FE8D1C02CE
:100D5A000FF575168E7517017518009001D9E0FD0B
:100D6A00A3E0FE8D1C020FF5900002E070157516C7
:100D7A00DB751701F5189001DFE0FDA3E0FE8D1C7D
:100D8A00020FF5900002E0FEBE01167516177517E0
:100D9A0002751800900225E0FDA3E0FE8D1C020FEB
:100DAA00F5900002E0FEBE02167516E17517017590
:100DBA0018009001FDE0FDA3E0FE8D1C020FF590E6
:100DCA000002E0FEBE03028003020FC79000DF7438
:100DDA0030F09000E004F09000E104F09000E204AA
:100DEA00F09000E304F09000E404F09000E504F0D1
:100DFA009000E604F09000E704F09000E804F09018
:100E0A0000E97441F09000EA04F09000EB04F090DD
:100E1A0000EC04F09000ED04F09000EE04F0900075
:100E2A00EFE4F0900227741AF09002287403F0900D
:100E3A003FFCE493C4540FFE53060F7D00EE24DFFB
:100E4A00F582ED3400F583E0900229F090022AE45D
:100E5A00F0903FFC93FE53060F7D00EE24DFF582EF
:100E6A00ED3400F583E090022BF090022CE4F09030
:100E7A003FFD93C4540FFE53060F7D00EE24DFF5A9
:100E8A0082ED3400F583E090022DF090022EE4F01A
:100E9A00903FFD93FE53060F7D00EE24DFF582EDB1
:100EAA003400F583E090022FF0900230E4F0903F96
:100EBA00FE93C4540FFE53060F7D00EE24DFF58225
:100ECA00ED3400F583E0900231F0900232E4F090C4
:100EDA003FFE93FE53060F7D00EE24DFF582ED34CC
:100EEA0000F583E0900233F0900234E4F0903FFF83
:100EFA0093C4540FFE53060F7D00EE24DFF582EDF6
:100F0A003400F583E0900235F0900236E4F0903F29
:100F1A00FF93FE53060F7D00EE24DFF582ED3400C9
:100F2A00F583E0900237F0900238E4F0903FFA93AC
:100F3A00C4540FFE53060F7D00EE24DFF582ED3414
:100F4A0000F583E0900239F090023AE4F0903FFA1B
:100F5A0093FE53060F7D00EE24DFF582ED3400F593
:100F6A0083E090023BF090023CE4F0903FFB93C494
:100F7A00540FFE53060F7D00EE24DFF582ED340098
:100F8A00F583E090023DF090023EE4F0903FFB933F
:100F9A00FE53060F7D00EE24DFF582ED3400F58363
:100FAA00E0FE90023FF0900240E4F075191AF51A3B
:100FBA00751627751702F518751C1A802E900002EF
:100FCA00E0FEBE04157516FF75170175180090022C
:100FDA0015E0FDA3E0FE8D1C80117516277517021A
:100FEA0075180085191C8003751CFF74FFB51C0356
:100FFA000212A1AD1C7E00C3ED9512EE95135004AA
:10100A008D128E13AD12AE13C3ED9408EE940092B6
:10101A000140067B087C008004AB12AC138B1C7C5D
:10102A0000C3EC951C50208C027B00EC2516F8E4DA
:10103A003517F9AF18888289838FF01223FFF88A4F
:10104A00828B83F00C80DAAC1C7F00EDC39CFDEE32
:10105A009FFE8D128E13E51C2516F516E43517F53D
:10106A00170212A1900002E0FF8F127513000212FC
:10107A00A1900000E515F0AE12AF13C3EE9401EF94
:10108A00940050030212A1751C010212A1900002E1
:10109A00E0F5150212A1900000E0541F7030900094
:1010AA0003E0FE7F00900002E0FD7C004207EC4274
:1010BA0006BF0114BE0011900195E0FF30E503025E
:1010CA0012A1751CFF0212A1751CFF0212A1900049
:1010DA0000E0FF53071F7E00BF0278BE0075900034
:1010EA0004E0FFBF0102805FBF02028049BF030222
:1010FA008033BF0402801DBF81028040BF8202800C
:10110A002ABF83028014BF844474BC55DE4402F5AE
:10111A00DE0212A153DE730212A174BC55D6440238
:10112A00F5D60212A153D6730212A174BC55D44447
:10113A0002F5D40212A153D4730212A174BC55D27F
:10114A004402F5D20212A153D2730212A1751CFFF6
:10115A000212A1751CFF0212A1900000E0541F7038
:10116A0030900003E0FE7F00900002E0FD7C004228
:10117A0007EC4206BF0114BE0011900195E0FF3052
:10118A00E5030212A1751CFF0212A1751CFF0212CF
:10119A00A1900000E0FF53071F7E00BF0205BE00BA
:1011AA00028003021274900003E0FE7F00900002A6
:1011BA00E0FD7C004207EC4206EF4E600302126F2C
:1011CA00900005E0FE7F00900004E0FD7C004207ED
:1011DA00EC4206BF0106BE0003021262BF0205BE50
:1011EA0000028060BF0305BE00028044BF0405BE42
:1011FA0000028028BF8105BE00028052BF8205BE60
:10120A0000028036BF8305BE0002801ABF8451BE29
:10121A00004E74BF55DE4403F5DE807B747F55DED5
:10122A00440CF5DE807174BF55D64403F5D6806749
:10123A00747F55D6440CF5D6805D74BF55D44403EB
:10124A00F5D48053747F55D4440CF5D4804974BFC7
:10125A0055D24403F5D2803F747F55D2440CF5D25F
:10126A00751CFF8032751CFF802D751CFF8028902D
:10127A000000E4F0900001F0AE12AF13C3EE940246
:10128A00EF94004005751C02800D85121C800875BC
:10129A001CFF8003751CFF74FFB51C077514FF75CE
:1012AA00DCCF22E51C24F74007851CDD75DCC02253
:1012BA0075DD0075DCC0227405B51402806E7406F3
:1012CA00B514028003021344AE12AF13C3EE94089E
:1012DA00EF9400920240067C087D008004AC12ADB7
:1012EA00138C667D00C3ED956650208D027B00ED60
:1012FA002516F8E43517F9AC18888289838CF01220
:10130A0023FFF88A828B83F00D80DAAC667D00EECB
:10131A00C39CFEEF9DFF8E128F13E5662516F51608
:10132A00E43517F5178566DD63DC4022E5E3548072
:10133A00FFE5124FF5E375DC022275DD0075DC026C
:10134A00227420B5140D30DE101209B575DD008542
:10135A00DCDC2275DD0043DC022275D30074FC5507
:10136A00D24402F5D22220D90302141BE5D9540F24
:10137A00FFADD95305307E00BD0005BE0002801CBA
:10138A00BD1005BE00028036BD2005BE00028043A6
:10139A00BD3006BE0003021401021419EF24FB50EB
:1013AA0003021419EF2F9013B47380088061800927
:1013BA00805D805B12134B8056120C5C8051EF24C7
:1013CA00FB404CEF2F9013D37380448042804080BF
:1013DA003E803CEF24FB4037EF2F9013E8738008E0
:1013EA00800B800E802980271212C180221213647A
:1013FA00801D120C4B8018EF24FB4013EF2F901422
:10140A000C7380088009800780058003120C7AC259
:10141A00D930D81575DC0275D21275D41275E3006D
:10142A00C2DAC2D9C2D81209AB10DA0122E5DA202F
:10143A00E20375D8FF2275E20053E27F43E2297581
:10144A00E30053E2BF53D1FB75D18043D10122435C
:10145A00E10443E10243E10143D81FD2EAD2AF22B9
:10146A007E0A7F008EEE8FEF7E147F008EE48FE57A
:10147A0075EB0C75D21275D4127E007F008EEC8F3C
:08148A00ED75EA4075DC022259
:10149200C021C0E0C0F0C082C083C007C006C00542
:1014A200C004C003C002C001C000C0D075D0001289
:1014B2001370D0D0D000D001D002D003D004D00518
:1014C200D006D007D083D082D0F0D0E0D02132C075
:1014D20021C0E0C0F0C082C083C007C006C005C002
:1014E20004C003C002C001C000C0D075D000309853
:1014F20005121F2AC298309905121F60C299D0D0D6
:10150200D000D001D002D003D004D005D006D0073D
:10151200D083D082D0F0D0E0D02132C021C0E0C050
:10152200F0C082C083C007C006C005C004C003C0AB
:1015320002C001C000C0D075D00030C005122451D5
:10154200C2C030C105122487C2C1D0D0D000D001A0
:10155200D002D003D004D005D006D007D083D082E9
:10156200D0F0D0E0D02132C021C0E0C0F0C082C0B3
:1015720083C007C006C005C004C003C002C001C0CA
:1015820000C0D075D000900247E0FEA3E0FFC00784
:10159200C0068E828F83120069D006D007D0D0D0C9
:1015A20000D001D002D003D004D005D006D007D09D
:1015B20083D082D0F0D0E0D02132C021C0E0C0F090
:1015C200C082C083C007C006C005C004C003C002F9
:1015D200C001C000C0D075D000900249E0FEA3E077
:1015E200FFC007C0068E828F83120069D006D00723
:1015F200D0D0D000D001D002D003D004D005D00684
:10160200D007D083D082D0F0D0E0D02132C021C028
:10161200E0C0F0C082C083C007C006C005C004C0DD
:1016220003C002C001C000C0D075D000900241E0EA
:10163200FEA3E04E600E900241E0F8A3E0F583883D
:1016420082120069D0D0D000D001D002D003D004E1
:10165200D005D006D007D083D082D0F0D0E0D02100
:1016620032121D381201041201BC80FB7582002265
:10167200E582FF90256893FEEF90254093FF70016D
:10168200229000F0E0FD701BBF0209EEF4FC5292C2
:10169200EC529322BF0402800122EEF4FC5296EC3B
:1016A200529722BD0214BF0207EE4292EE429322EB
:1016B200BF0439EE4296EE429722BD0116BF0208E0
:1016C200EEF45292EE429322BF0421EEF45296EED1
:1016D200429722BD0316BF0208EE4292EEF45293E5
:1016E20022BF0408EE4296EEF4FE529722AF82BF6A
:1016F2000102800FBF02028013BF03028017BF04E2
:10170200358023E5C620E22E539DFB22E5C620E369
:1017120025539DF722AEC65306047F00BE0117BFB4
:101722000014539DFB22AEC65306087F00BE01067D
:10173200BF0003539DF722E582FF90251893FEEF29
:1017420090256893FDEF90254093FF7003F5822268
:10175200EE600D8E82C007C0051216EFD005D007CD
:101762007E00BF0202800ABF03028009BF040C8010
:1017720008AE908006AEA08002AEB0ED5E60047549
:1017820082012275820022E582FF90251893FEEFE6
:1017920090256893FDEF90254093FFEE600D8E82B9
:1017A200C007C0051216EFD005D007A2AFE433FE82
:1017B200C2AFBF0202800ABF03028017BF04368095
:1017C200249000F1E07007EDF4FF52908027ED4283
:1017D2009080229000F1E07007EDF4FF52A0801596
:1017E200ED42A080109000F1E07007EDF4FF52B0DE
:0B17F2008003ED42B0EE6002D2AF2297
:1017FE00AE82AF839000F2E0FBA3E0FCA3E0FD7AA3
:10180E00009000F5E0F9890019E8603F8B828C8327
:10181E008DF01223FFF8A3AB82AC83C007C006C0C5
:10182E0005C004C003C002C00112183C8007C006E8
:10183E00C007888222A882D001D002D003D004D063
:10184E0005D006D007E860030A80BB8A8222AE82EA
:10185E00AF839000F6E0FBA3E0FCA3E0FD9000F662
:10186E00E0F5F0A3E045F07003F582227A008B825A
:10187E008C838DF01223FFF9A3AB82AC83E9F86061
:10188E002CC007C006C005C004C003C0021218A0B9
:10189E008007C006C007888222A982D002D003D05A
:1018AE0004D005D006D007E960030A80C18A8222DF
:1018BE00AE82AF839000F9E0FAA3E0FBA3E0FCA3B5
:1018CE00E0FD900101EAF0EBA3F0ECA3F0EDA3F044
:1018DE00900105740AF08E828F8302194FAE82AF8B
:1018EE00839000FDE0FAA3E0FBA3E0FCA3E0FD90F3
:1018FE000127EAF0EBA3F0ECA3F0EDA3F090012B9F
:10190E00740AF08E828F83021A34AE82AF83C007C0
:10191E00C0061219258008C006C00775820D22ADBB
:10192E0082D006D007C007C00512193C8008C00639
:10193E00C00775820A22AE82D005D007EE2DF58241
:10194E0022858248858349900126E4F0900105E0C6
:10195E00FDBD02005006900105740AF0900105E0ED
:10196E00F54A7B267C01900101E0F54BA3E0F54C96
:10197E00A3E0F54DA3E0F54E854A4F755000755125
:10198E0000755200854F668550678551688552698E
:10199E00854B82854C83854DF0E54EC004C0031205
:1019AE00209DA882854F668550678551688552694E
:1019BE00854B82854C83854DF0E54EC00012220882
:1019CE00AA82AD83AEF0FFD000D003D00490010107
:1019DE00EAF0EDA3F0EEA3F0EFA3F01BBBFF011CAA
:1019EE008B068C07B80A005008880574302DFD80D0
:1019FE0004743728FD8E828F83EDF0900101E0F59F
:101A0E00F0A3E042F0A3E042F0A3E045F060030251
:101A1E0019749000F6EBF0ECA3F0E4A3F085488285
:101A2E0085498302185C85825385835490012BE08F
:101A3E00FD7019900127E0F9A3E0FAA3E0FBA3E003
:101A4E00FC021A52C053C05489822222BD0A02805F
:101A5E0003021AFF900127E0F9A3E0FAA3E0FBA32B
:101A6E00E0FC30E76FC004C003C002C001121A8050
:101A7E008008C053C05475822D22A882D001D00296
:101A8E00D003D0048855900127C3E499F0E49AA3BB
:101A9E00F0E49BA3F0E49CA3F0900127E0F556A39D
:101AAE00E0F557A3E0F558A3E0F559900101E5568E
:101ABE00F0E557A3F0E558A3F0E559A3F090010522
:101ACE00740AF085538285548312194FAF82E555FF
:101ADE002FF58222900101E9F0EAA3F0EBA3F0ECDE
:101AEE00A3F0900105740AF0855382855483021980
:101AFE004F900127E0FBA3E0FCA3E0FEA3E0FF90E4
:101B0E000101EBF0ECA3F0EEA3F0EFA3F0900105D2
:0B1B1E00EDF085538285548302194FBF
:101B2A00AC82AD83AE67AF68BE0004EF600C1F0FD6
:0F1B3A00E566121F0FA3DEFADFF88C828D83227F
:101B4900AE82AF838F05BD800040012275A1557516
:101B5900A1AA43B10475A1007585C0ED2DF5848E48
:101B69008EE58630E60375869A75A15575A1AA5347
:101B7900B1FB75A10022AF827585C0EF2FF5847581
:101B8900868E858E8222C0D075D00808B8000D09CE
:101B9900B900090ABA00050BBB00010CD0D032A26A
:101BA900AFC2AFA808A909AA0AAB0BAC8A8588F00D
:101BB90092AF30F51274012C600D08B8000909B90B
:101BC90000050ABA00010BC3EC9406FCECC313FC34
:101BD90075F07DE8A4F8ADF075F07DE9A42DF9E480
:101BE90035F0FD75F07DEAA42DFAE435F0FD75F0C8
:101BF9007DEBA42DFB7D00EC28F582E93DF583EA18
:101C09003DF5F0EB3D22A2AFC2AFA808A909AA0A87
:101C1900AB0BAC0C92AF75F020E8A4A8F075F020DE
:101C2900E9A428F582A8F075F020EAA428F583A88C
:101C3900F075F020EBA428F9A8F075F020ECA428A1
:101C490089F02285825A85835B85F05CF55D121BDC
:101C5900A885825E85835F85F060F561E55A455BFD
:101C6900455C455D700122A85AA95BAA5CAB5D85FC
:101C79005E62855F63856064856165E8494A4B609A
:101C8900DBC003C002C001C000121BA8AC82AD8337
:101C9900AEF0FFD000D001D002D003ECC39562FCB6
:101CA900ED9563FDEE9564FEEF9565FFC3EC94E851
:101CB900ED9403EE9400EF940040A118B8FF0919C0
:101CC900B9FF051ABAFF011B885A895B8A5C8B5DCB
:101CD90074E82562F56274033563F563E43564F5E8
:101CE90064E43565F56585625E85635F8564608555
:101CF90065618087AE82AF83C374019EE49F400211
:101D09002200C374029EFE74009FFF00BE0005BF3F
:101D19000002002200000000000000000000000096
:101D290000000000000EBE00EB0FBF00ED002275A1
:101D3900A15575A1AA74F855B94406F5B975A1005C
:101D4900901388121CFD759E5D759D0074F0558970
:101D59004402F58953C9EF758C06C28DD2A9D28C7C
:031D6900D2AF22D4
:101D6D0090012CE0F5822285826685836785F06877
:101D7D00F569901C0075F04E740E122208AC82AD00
:101D8D0083AEF0FFEDC4CCC4540F6CCC540FCC6CAF
:101D9D00CCFDEEC454F04DFDEFC4CEC4540F6ECE49
:101DAD00540FCE6ECEFF8C028D038A828B837566A7
:101DBD000A756700C007C006C005C004121FA6AA99
:101DCD0082D004D005D006D00775660AE4F567F514
:101DDD0068F5698C828D838EF0EFC002122208ACFB
:101DED0082AD83AEF0FFD002BA0500400D0CBC00F1
:101DFD00090DBD00050EBE00010FC29FD29EC29DF2
:101E0D00C2CDC2CC438780740F55894420F58943D8
:101E1D00C9A0C3E49CF58DD28EC299D29CD2AC9050
:101E2D00012C7401F022AF82A2AFE433FEC2AF9059
:101E3D000245E0FD900246E0FCEDB5041020030DD7
:101E4D00D2038F99EE6002D2AF75820122900245C6
:101E5D00E0FD0D53050F7B007C00900246E0FAED8E
:101E6D00B50235EE6002D2AF0BBB00010C90000540
:101E7D00C007C006C005C004C003121CFDD003D0AE
:101E8D0004D005D006D0078B018C02C3E99420EA5B
:101E9D00944E40C675820022900245E0243DF582A5
:101EAD00E43401F583EFF0900245EDF0EE6002D2DF
:101EBD00AF758201222003FD22900243E02410FF22
:101ECD00900244E0FEEFC39EFF740F5FF5822290F7
:101EDD000243E02410FF900244E0FEEFC39E540F36
:101EED00601C900244E0242DF582E43401F583E07A
:101EFD00FF900244E0FE0E740F5EF08F8222758219
:101F0D00002220F71130F6138883A88220F509F6F8
:0D1F1D00A8837583002280FEF280F5F0227B
:101F2A00900243E0FF7E008F828E83A37566108E37
:101F3A006712241BAE82900244E0FFEEB50701222D
:101F4A00900243E0242DF582E43401F583E599F00B
:101F5A00900243EEF022300340900245E0FF9002E7
:101F6A0046E0FEEFB50605A203C20322900246E050
:101F7A00243DF582E43401F583E0F599900246E0C8
:101F8A00FF7E008F828E83A37566108E6712241BD4
:0A1F9A00AE82AF83900246EEF02203
:011FA400320A
:101FA600E566456760467A01E56625E0F566E5671C
:101FB600334012F567E5829566E583956740030A27
:101FC60080E6C3E56713F567E56613F566C3E58244
:101FD6009566F5F0E58395674005F58385F082C340
:101FE600E56713F567E56613F566DAE122AAF0FB05
:101FF600E5828566F0A4FCADF0E5838566F0A42D48
:10200600FDE435F0FEE5828567F0A42DFDE5F03EA2
:10201600FEE433FFEA8566F0A42EFEE5F03FFFE519
:10202600838567F0A42EFEE5F03FFFE5828568F024
:10203600A42EFEE5F03FFFEB8566F0A42FFFEA85B0
:1020460067F0A42FFFE5838568F0A42FFFE582855E
:0C20560069F0A42F8EF08D838C82223262
:09206300ABF0A2AFE433FEC2AF02
:10206D00E0A3D2913300500A0000000000000000F0
:10207D000000C291400A00000000000000000000B6
:10208D00530207DADDDBD900C291EE6002D2AF2236
:10209D00F9E56645674568456960777800C308E5E9
:1020AD006920E73BE56625E0F566E56733F567E50D
:1020BD006833F568E56933F569E5829566E58395DD
:1020CD0067E5F09568E9956950D4C3E56913F5693D
:1020DD00E56813F568E56713F567E56613F566E5DD
:1020ED00829566FCE5839567FDE5F09568FEE995BB
:1020FD00694007F98EF08D838C82C3E56913F5690C
:10210D00E56813F568E56713F567E56613F566D8B9
:0C211D00CEE922ABF0A2AFE433FEC2AF6B
:10212A00E0A3D2B03300500A000000000000000013
:10213A000000C2B0400A00000000000000000000D9
:10214A00530207DADDDBD900C2B0EE6002D2AF2259
:09215A00ABF0A2AFE433FEC2AF0A
:10216400E0A3D2B13300500A0000000000000000D8
:102174000000C2B1400A000000000000000000009E
:10218400530207DADDDBD900C2B1EE6002D2AF221E
:09219400ABF0A2AFE433FEC2AFD0
:10219E00E0A3D2B23300500A00000000000000009D
:1021AE000000C2B2400A0000000000000000000063
:1021BE00530207DADDDBD900C2B2EE6002D2AF22E3
:0921CE00ABF0A2AFE433FEC2AF96
:1021D800E0A3D2943300500A000000000000000081
:1021E8000000C294400A0000000000000000000047
:1021F800530207DADDDBD900C294EE6002D2AF22C7
:10220800FB7A20E4FCFDFEFFE5822582F582E5836A
:1022180033F583E5F033F5F0EB33FB4017DAE9806B
:1022280042E5822582F582E58333F583E5F033F5CF
:10223800F0EB33FBEC33FCED33FDEE33FEEF33FF15
:10224800EC9566ED9567EE9568EF95694013EC950A
:1022580066FCED9567FDEE9568FEEF9569FF438294
:0E22680001DABEEB22ABF0A2AFE433FEC2AF50
:10227700E0A3D2B33300500A0000000000000000C2
:102287000000C2B3400A0000000000000000000088
:10229700530207DADDDBD900C2B3EE6002D2AF2208
:0922A700ABF0A2AFE433FEC2AFBC
:1022B100E0A3D2953300500A0000000000000000A6
:1022C1000000C295400A000000000000000000006C
:1022D100530207DADDDBD900C295EE6002D2AF22EC
:0922E100ABF0A2AFE433FEC2AF82
:1022EB00E0A3D2B43300500A00000000000000004D
:1022FB000000C2B4400A0000000000000000000013
:10230B00530207DADDDBD900C2B4EE6002D2AF2292
:09231B00ABF0A2AFE433FEC2AF47
:10232500E0A3D2963300500A000000000000000030
:102335000000C296400A00000000000000000000F6
:10234500530207DADDDBD900C296EE6002D2AF2276
:09235500ABF0A2AFE433FEC2AF0D
:10235F00E0A3D2973300500A0000000000000000F5
:10236F000000C297400A00000000000000000000BB
:10237F00530207DADDDBD900C297EE6002D2AF223B
:10238F0022AF82BF02005036EF75F002A42447F54A
:10239F0082740235F0F583E566F0E567A3F0BF00C0
:1023AF00028005BF0118800B90014DE024FF928839
:1023BF00D2A82290014DE0FF24FF928AD2AA22AF29
:1023CF0082BF02005028BF00028005BF01088004B1
:1023DF00C2A88002C2AAEF75F002A42447FE7402BD
:0F23EF0035F0FF8E828F83748FF07423A3F0225A
:1023FF0020F71430F6148883A88220F507E6A88307
:10240F0075830022E280F7E49322E022C2D5E583B0
:10241F0030E70DD2D5E4C39582F582E49583F58339
:10242F00E56730E70BE4C39566F566E49567F567F6
:10243F00121FA630D50BE4C39582F582E49583F580
:02244F008322E6
:1024510090024BE0FF7E008F828E83A37566108E03
:102461006712241BAE8290024CE0FFEEB5070122F9
:1024710090024BE0244EF582E43401F583E5C1F08E
:1024810090024BEEF02230044090024DE0FF9002AA
:102491004EE0FEEFB50605A204C2042290024EE012
:1024A100245EF582E43401F583E0F5C190024EE04B
:1024B100FF7E008F828E83A37566108E6712241BA8
:0A24C100AE82AF8390024EEEF022CF
:1024CB0061626E6469727370643135344164614169
:1024DB006D62696E6F2046616E487562312E302ECB
:1024EB0033414652316741626E0A004170706C692C
:1024FB0065642046616E2053706565640073617678
:0D250B0065642046616E20537065656400B4
:1025180000000000000000000000000000000001B2
:10252800000000000000000000000000000003049C
:102538000000020000000000010101010101010189
:102548000000020202020202020200000303030367
:102558000303030300000404040404040404000047
:102568000102040810204080000001020408102025
:102578004080000001020408102040800000010291
:102588000408102040800000FFFFFFFFFFFFFFFF4F
:10259800FFFFFF00FFFF0102FFFFFFFFFFFFFFFF3D
:1025A800FFFFFFFFFFFFFFFF03FFFFFFFFFFFFFF2F
:1025B80000E1000000000800000000001201100106
:1025C800EF020108091250C50101010203011200BE
:1025D80009024B000201008064080B00020202019C
:1025E8000409040000010202010405240010010589
:1025F80024010000042402020524060001070581C5
:102608000308004009040100020A0000040705024B
:1026180002400000070582024000004B0004030945
:102628000404001C0341006D00620069006E006F25
:10263800002000460061006E004800750062001C22
:102648000016034300440043002000530065007255
:1026580000690061006C0016000E0341006D006205
:092668000069006E006F000E0015
:102671000C033000310032003300340035003600E5
:0A2681003700380039004100420024
:02268B0000004D
:04268D000000000049
:042691008F238F23E1
:042695000000000041
:00000001FF
