:0600000002006B0202DFAA
:03000B00020714D5
:03001300020332B3
:01001B0032B2
:030023000202478F
:03002B00020CD3F1
:01003300329A
:03003B0002038538
:03004300020208AE
:01004B003282
:0300530002029313
:01005B003272
:03006300020BC8C5
:030066000203D9B9
:02006900E4733E
:0D006B007581451203E4E582600302006622
:10007800790EE94400601B7A0190114E788D75A0C5
:1000880000E493F2A308B8000205A0D9F4DAF275E7
:02009800A0FFC7
:06009A00E478FFF6D8FD3A
:1000A0007800E84400600A790075A000E4F309D8FC
:1000B000FC788DE84400600C7901900000E4F0A326
:0400C000D8FCD9FA95
:1000C4007522D9752303752400752700752D2275B3
:0200D4002E00FC
:0E00D6007808E4F608F608F608F6780C7600CE
:0200E400C20058
:0200E600C20155
:0300E800020066AD
:1000EC00902580E4F5F01208F990000E7488F074F5
:1000FC0010A3F07480A3F09009B81204469009B8CC
:10010C0002050212079485822985832A85F02BF536
:10011C002C120A4BE5826019120A61858228E4B51B
:10012C00240280077401B52408800302013E0201F9
:10013C00A02274FD252F4010E52F90108593B52833
:10014C0003052F22752F0022E52F24F74045E52FBC
:10015C00240B83F582E52F240D83F583E4739F9F95
:10016C009F7C82888E94970101010101010101019C
:10017C00852830052F22852831052F228528320528
:10018C002F22852833052F22052F22752401E4F513
:10019C0025F52622C3E525940AE52694005018E59A
:1001AC00252400F582E5263400F583E528F00525A5
:1001BC00E4B52547052622AF2D900000E09000689D
:1001CC00F0E4A3F08F82120C3C90000E749AF07441
:1001DC0010A3F07480A3F09009B8120446900000AC
:1001EC00E0FF7E007D007C008F828E838DF0EC1210
:0C01FC000B509009B81205027524002277
:10020800C021C0E0C0F0C082C083C007C006C005DE
:10021800C004C003C002C001C000C0D075D0001225
:100228000A94D0D0D000D001D002D003D004D00599
:10023800D006D007D083D082D0F0D0E0D02132C011
:1002480021C0E0C0F0C082C083C007C006C005C09E
:1002580004C003C002C001C000C0D075D0003098EF
:1002680005120A96C298309905120ACCC299D0D0C4
:10027800D000D001D002D003D004D005D006D007DA
:10028800D083D082D0F0D0E0D02132C021C0E0C0ED
:10029800F0C082C083C007C006C005C004C003C048
:1002A80002C001C000C0D075D00030C00512100BCC
:1002B800C2C030C105121041C2C1D0D0D000D00197
:1002C800D002D003D004D005D006D007D083D08286
:1002D800D0F0D0E0D02132C021C0E0C0F0C082C050
:1002E80083C007C006C005C004C003C002C001C067
:1002F80000C0D075D000900093E0FEA3E0FFC007D7
:10030800C0068E828F83120069D006D007D0D0D065
:1003180000D001D002D003D004D005D006D007D039
:1003280083D082D0F0D0E0D02132C021C0E0C0F02C
:10033800C082C083C007C006C005C004C003C00295
:10034800C001C000C0D075D000900095E0FEA3E0C9
:10035800FFC007C0068E828F83120069D006D007BF
:10036800D0D0D000D001D002D003D004D005D00620
:10037800D007D083D082D0F0D0E0D02132C021C0C5
:10038800E0C0F0C082C083C007C006C005C004C07A
:1003980003C002C001C000C0D075D00090008DE03D
:1003A800FEA3E04E600E90008DE0F8A3E0F5838890
:1003B80082120069D0D0D000D001D002D003D0047E
:1003C800D005D006D007D083D082D0F0D0E0D0219D
:1003D800321208BD1200EC12010F80FB7582002258
:1003E800AE82AF8390000AE0FBA3E0FCA3E0FD7AB5
:1003F8000090000DE0F9890019E8603F8B828C833A
:100408008DF0120FB9F8A3AB82AC83C007C006C049
:1004180005C004C003C002C0011204268007C0063C
:10042800C007888222A882D001D002D003D004D08D
:1004380005D006D007E860030A80BB8A8222AE8214
:10044800AF8390000EE0FBA3E0FCA3E0FD90000E5C
:10045800E0F5F0A3E045F07003F582227A008B8284
:100468008C838DF0120FB9F9A3AB82AC83E9F860E5
:100478002CC007C006C005C004C003C00212048A0D
:100488008007C006C007888222A982D002D003D084
:1004980004D005D006D007E960030A80C18A822209
:1004A800AE82AF83900011E0FAA3E0FBA3E0FCA3C7
:1004B800E0FD900019EAF0EBA3F0ECA3F0EDA3F057
:1004C80090001D740AF08E828F83020539AE82AFC8
:1004D80083900015E0FAA3E0FBA3E0FCA3E0FD9005
:1004E800003FEAF0EBA3F0ECA3F0EDA3F09000439B
:1004F800740AF08E828F8302061EAE82AF83C00715
:10050800C00612050F8008C006C00775820D22AD0F
:1005180082D006D007C007C0051205268008C0068D
:10052800C00775820A22AE82D005D007EE2DF5826B
:100538002285823485833590003EE4F090001DE0EA
:10054800FDBD0200500690001D740AF090001DE0E9
:10055800F5367B3E7C00900019E0F537A3E0F538CE
:10056800A3E0F539A3E0F53A85363B753C00753DC7
:1005780000753E00853B1C853C1D853D1E853E1F44
:100588008537828538838539F0E53AC004C003127F
:100598000E61A882853B1C853C1D853D1E853E1F3E
:1005A8008537828538838539F0E53AC000120EE434
:1005B800AA82AD83AEF0FFD000D003D0049000191A
:1005C800EAF0EDA3F0EEA3F0EFA3F01BBBFF011CD4
:1005D8008B068C07B80A005008880574302DFD80FA
:1005E80004743728FD8E828F83EDF0900019E0F5B2
:1005F800F0A3E042F0A3E042F0A3E045F06003027C
:10060800055E90000EEBF0ECA3F0E4A3F0853482D5
:1006180085358302044685823F858340900043E008
:10062800FD701990003FE0F9A3E0FAA3E0FBA3E016
:10063800FC02063CC03FC04089822222BD0A0280DB
:10064800030206E990003FE0F9A3E0FAA3E0FBA368
:10065800E0FC30E76FC004C003C002C00112066AA4
:100668008008C03FC04075822D22A882D001D002E8
:10067800D003D004884190003FC3E499F0E49AA3E2
:10068800F0E49BA3F0E49CA3F090003FE0F542A3C4
:10069800E0F543A3E0F544A3E0F545900019E542F1
:1006A800F0E543A3F0E544A3F0E545A3F090001D71
:1006B800740AF0853F82854083120539AF82E5418F
:1006C8002FF58222900019E9F0EAA3F0EBA3F0ECF1
:1006D800A3F090001D740AF0853F828540830205CF
:1006E8003990003FE0FBA3E0FCA3E0FEA3E0FF900D
:1006F8000019EBF0ECA3F0EEA3F0EFA3F090001DCF
:0B070800EDF0853F828540830205393B
:10071400C0D075D00808B8000D09B900090ABA009C
:10072400050BBB00010CD0D032A2AFC2AFA808A900
:1007340009AA0AAB0BAC8A8588F092AF30F5127423
:10074400012C600D08B8000909B900050ABA0001B6
:100754000BC3EC9406FCECC313FC75F07DE8A4F821
:10076400ADF075F07DE9A42DF9E435F0FD75F07D6B
:10077400EAA42DFAE435F0FD75F07DEBA42DFB7DA4
:1007840000EC28F582E93DF583EA3DF5F0EB3D22E6
:10079400A2AFC2AFA808A909AA0AAB0BAC0C92AFCE
:1007A40075F020E8A4A8F075F020E9A428F582A843
:1007B400F075F020EAA428F583A8F075F020EBA4E6
:1007C40028F9A8F075F020ECA42889F0228582107D
:1007D40085831185F012F51312072D858214858304
:1007E4001585F016F517E5104511451245137001EE
:1007F40022A810A911AA12AB1385141885151985FE
:10080400161A85171BE8494A4B60DBC003C002C0B7
:1008140001C00012072DAC82AD83AEF0FFD000D032
:1008240001D002D003ECC39518FCED9519FDEE95AB
:100834001AFEEF951BFFC3EC94E8ED9403EE9400CD
:10084400EF940040A118B8FF0919B9FF051ABAFFBF
:10085400011B881089118A128B1374E82518F51866
:1008640074033519F519E4351AF51AE4351BF51B2B
:10087400851814851915851A16851B178087AE826D
:10088400AF83C374019EE49F40022200C374029E9E
:10089400FE74009FFF00BE0005BF0002002200009E
:1008A4000000000000000000000000000000000E36
:1008B400BE00EB0FBF00ED002275A15575A1AA740F
:1008C400F855B94406F5B975A10090138812088249
:1008D400759E5D759D0074F055894402F58953C970
:0D08E400EF758C06C28DD2A9D28CD2AF2246
:1008F200900044E0F5822285821C85831D85F01ECE
:10090200F51F901C0075F04E740E120EE4AC82AD11
:1009120083AEF0FFEDC4CCC4540F6CCC540FCC6C3E
:10092200CCFDEEC454F04DFDEFC4CEC4540F6ECED8
:10093200540FCE6ECEFF8C028D038A828B83751C80
:100942000A751D00C007C006C005C004120BCAAA62
:1009520082D004D005D006D007751C0AE4F51DF537
:100962001EF51F8C828D838EF0EFC002120EE4AC56
:1009720082AD83AEF0FFD002BA0500400D0CBC0080
:10098200090DBD00050EBE00010FC29FD29EC29D81
:10099200C2CDC2CC438780740F55894420F5894368
:1009A200C9A0C3E49CF58DD28EC299D29CD2AC90E0
:1009B20000447401F022AF82A2AFE433FEC2AF90D2
:1009C2000091E0FD900092E0FCEDB5041020000DD6
:1009D200D2008F99EE6002D2AF758201229000910F
:1009E200E0FD0D53050F7B007C00900092E0FAEDD4
:1009F200B50235EE6002D2AF0BBB00010C900005D0
:100A0200C007C006C005C004C003120882D003D0CC
:100A120004D005D006D0078B018C02C3E99420EAEA
:100A2200944E40C675820022900091E02455F582D2
:100A3200E43400F583EFF0900091EDF0EE6002D225
:100A4200AF758201222000FD2290008FE02410FF6A
:100A5200900090E0FEEFC39EFF740F5FF58222903C
:100A6200008FE02410FF900090E0FEEFC39E540F31
:100A7200601C900090E02445F582E43400F583E0A8
:100A8200FF900090E0FE0E740F5EF08F822275825E
:030A92000022221D
:100A960090008FE0FF7E008F828E83A3751C108EE0
:100AA6001D120FD5AE82900090E0FFEEB507012231
:100AB60090008FE02445F582E43400F583E599F053
:100AC60090008FEEF022300040900091E0FF900001
:100AD60092E0FEEFB50605A200C20022900092E069
:100AE6002455F582E43400F583E0F599900092E010
:100AF600FF7E008F828E83A3751C108E1D120FD56C
:0A0B0600AE82AF83900092EEF02261
:100B1000AC82AD83AEF0FF900015ECF0EDA3F0EEEB
:100B2000A3F0EFA3F09009B80204D5AC82AD83AE78
:100B3000F0FF900065E0FB90003FECF0EDA3F0EEDD
:100B4000A3F0EFA3F0900043EBF09009B802061E6B
:100B5000AC82AD83AEF0FF900011ECF0EDA3F0EEAF
:100B6000A3F0EFA3F09009B80204A8AC82AD83AE65
:100B7000F0FF900066E0FB90003FECF0EDA3F0EE9C
:100B8000A3F0EFA3F0900043EBF09009B802061E2B
:100B9000AD82AE83AFF090000EEDF0EEA3F0EFA3C8
:100BA000F09009B8020446AD82AE83AFF0900067C2
:100BB000E0FC90000AEDF0EEA3F0EFA3F090000D42
:090BC000ECF09009B80203E832E0
:100BCA00E51C451D60467A01E51C25E0F51CE51D7E
:100BDA00334012F51DE582951CE583951D40030AF5
:100BEA0080E6C3E51D13F51DE51C13F51CC3E5825C
:100BFA00951CF5F0E583951D4005F58385F082C3C4
:100C0A00E51D13F51DE51C13F51CDAE122E58290BA
:100C1A00112693FFBFFF0475820022759A0974FC9E
:100C2A005580FE74035F4EF580D2842084FD859F33
:100C3A008222AF8290006A7401F08F82C007120C80
:100C4A00D5D007900068E0FDA3E0FE4D700A900041
:100C5A006BE4F08F82020DEC8D038E0474FF2C502E
:100C6A000B90006B7401F08F82020DECEF9010AEC6
:100C7A0093FA24FB4034EA2A900C8673802C80066F
:100C8A00800D8014801B53C6FB439D048D9C225308
:100C9A00C6F7439D088D9B2243C604439D048D9C41
:100CAA002243C608439D088D9B22C3EB9480EC9493
:100CBA0000500A90006BE4F08F82020DEC90006BFA
:080CCA007401F08F82020DECB1
:010CD30032EE
:100CD500E582FF9010FE93FEEF9010D693FF700112
:100CE5002290006AE0FD701BBF0209EEF4FC5292EF
:100CF500EC529322BF0402800122EEF4FC5296ECE2
:100D0500529722BD0214BF0207EE4292EE42932291
:100D1500BF0439EE4296EE429722BD0116BF020886
:100D2500EEF45292EE429322BF0421EEF45296EE77
:100D3500429722BD0316BF0208EE4292EEF452938B
:100D450022BF0408EE4296EEF4FE529722AF82BF10
:100D55000102800FBF02028013BF03028017BF0488
:100D6500358023E5C620E22E539DFB22E5C620E310
:100D750025539DF722AEC65306047F00BE0117BF5B
:100D85000014539DFB22AEC65306087F00BE010624
:100D9500BF0003539DF722E582FF9010AE93FEEF4F
:100DA5009010FE93FDEF9010D693FF7003F582220D
:100DB500EE600D8E82C007C005120D52D005D0071A
:100DC5007E00BF0202800ABF03028009BF040C80B7
:100DD50008AE908006AEA08002AEB0ED5E600475F0
:100DE50082012275820022E582FF9010AE93FEEF0C
:100DF5009010FE93FDEF9010D693FFEE600D8E825E
:100E0500C007C005120D52D005D007A2AFE433FECE
:100E1500C2AFBF0202800ABF03028017BF0436803B
:100E25002490006BE07007EDF4FF52908027ED42AF
:100E350090802290006BE07007EDF4FF52A08015C2
:100E4500ED42A0801090006BE07007EDF4FF52B00A
:0B0E55008003ED42B0EE6002D2AF223D
:100E6100F9E51C451D451E451F60777800C308E55F
:100E71001F20E73BE51C25E0F51CE51D33F51DE5CD
:100E81001E33F51EE51F33F51FE582951CE583959D
:100E91001DE5F0951EE9951F50D4C3E51F13F51FFD
:100EA100E51E13F51EE51D13F51DE51C13F51CE5E7
:100EB10082951CFCE583951DFDE5F0951EFEE995E7
:100EC1001F4007F98EF08D838C82C3E51F13F51F38
:100ED100E51E13F51EE51D13F51DE51C13F51CD8C4
:100EE100CEE922FB7A20E4FCFDFEFFE5822582F5B6
:100EF10082E58333F583E5F033F5F0EB33FB4017FF
:100F0100DAE98042E5822582F582E58333F583E5DE
:100F1100F033F5F0EB33FBEC33FCED33FDEE33FE58
:100F2100EF33FFEC951CED951DEE951EEF951F40DF
:100F310013EC951CFCED951DFDEE951EFEEF951F26
:080F4100FF438201DABEEB223E
:100F490022AF82BF02005036EF75F002A42493F558
:100F590082740035F0F583E51CF0E51DA3F0BF00B0
:100F6900028005BF0118800B90006CE024FF928875
:100F7900D2A82290006CE0FF24FF928AD2AA22AF65
:100F890082BF02005028BF00028005BF010880040B
:100F9900C2A88002C2AAEF75F002A42493FE7400CD
:0F0FA90035F0FF8E828F837449F0740FA3F0220E
:100FB90020F71430F6148883A88220F507E6A88361
:100FC90075830022E280F7E49322E022C2D5E5830B
:100FD90030E70DD2D5E4C39582F582E49583F58394
:100FE900E51D30E70BE4C3951CF51CE4951DF51DC3
:100FF900120BCA30D50BE4C39582F582E49583F5CB
:02100900832240
:10100B00900097E0FF7E008F828E83A3751C108E5D
:10101B001D120FD5AE82900098E0FFEEB5070122AE
:10102B00900097E0246DF582E43400F583E5C1F080
:10103B00900097EEF022300140900099E0FF900075
:10104B009AE0FEEFB50605A201C2012290009AE0DC
:10105B00247DF582E43400F583E0F5C190009AE03D
:10106B00FF7E008F828E83A3751C108E1D120FD5F1
:0A107B00AE82AF8390009AEEF022DF
:1010850061626E77616974696E6720666F7220733D
:10109500706565640046616E5370656564204170D6
:0910A500706C696564203A2000BA
:1010AE000000000000000000000000000000000131
:1010BE00000000000000000000000000000003041B
:1010CE000000020000000000010101010101010108
:1010DE0000000202020202020202000003030303E6
:1010EE0003030303000004040404040404040000C6
:1010FE0001020408102040800000010204081020A4
:10110E00408000000102040810204080000001020F
:10111E000408102040800000FFFFFFFFFFFFFFFFCD
:10112E00FFFFFF00FFFF0102FFFFFFFFFFFFFFFFBB
:10113E00FFFFFFFFFFFFFFFF03FFFFFFFFFFFFFFAD
:02114E0000009F
:04115000000000009B
:04115400490F490FE7
:041158000000000093
:00000001FF
